{
  "contractName": "BetManager",
  "abi": [
    {
      "constant": true,
      "inputs": [],
      "name": "creator",
      "outputs": [
        {
          "name": "",
          "type": "address"
        }
      ],
      "payable": false,
      "stateMutability": "view",
      "type": "function"
    },
    {
      "constant": true,
      "inputs": [
        {
          "name": "",
          "type": "uint256"
        }
      ],
      "name": "betEvents",
      "outputs": [
        {
          "name": "",
          "type": "address"
        }
      ],
      "payable": false,
      "stateMutability": "view",
      "type": "function"
    },
    {
      "constant": true,
      "inputs": [],
      "name": "length",
      "outputs": [
        {
          "name": "",
          "type": "uint256"
        }
      ],
      "payable": false,
      "stateMutability": "view",
      "type": "function"
    },
    {
      "inputs": [],
      "payable": false,
      "stateMutability": "nonpayable",
      "type": "constructor"
    },
    {
      "constant": false,
      "inputs": [
        {
          "name": "eventAddr",
          "type": "address"
        }
      ],
      "name": "addEvent",
      "outputs": [],
      "payable": false,
      "stateMutability": "nonpayable",
      "type": "function"
    }
  ],
  "bytecode": "0x6060604052341561000f57600080fd5b336000806101000a81548173ffffffffffffffffffffffffffffffffffffffff021916908373ffffffffffffffffffffffffffffffffffffffff1602179055506000600281905550610336806100666000396000f300606060405260043610610062576000357c0100000000000000000000000000000000000000000000000000000000900463ffffffff16806302d05d3f14610067578063107a2c5e146100bc5780631f7b6d321461011f578063c7ae745114610148575b600080fd5b341561007257600080fd5b61007a610181565b604051808273ffffffffffffffffffffffffffffffffffffffff1673ffffffffffffffffffffffffffffffffffffffff16815260200191505060405180910390f35b34156100c757600080fd5b6100dd60048080359060200190919050506101a6565b604051808273ffffffffffffffffffffffffffffffffffffffff1673ffffffffffffffffffffffffffffffffffffffff16815260200191505060405180910390f35b341561012a57600080fd5b6101326101e5565b6040518082815260200191505060405180910390f35b341561015357600080fd5b61017f600480803573ffffffffffffffffffffffffffffffffffffffff169060200190919050506101eb565b005b6000809054906101000a900473ffffffffffffffffffffffffffffffffffffffff1681565b6001818154811015156101b557fe5b90600052602060002090016000915054906101000a900473ffffffffffffffffffffffffffffffffffffffff1681565b60025481565b6000809054906101000a900473ffffffffffffffffffffffffffffffffffffffff1673ffffffffffffffffffffffffffffffffffffffff163373ffffffffffffffffffffffffffffffffffffffff1614156102b6576001805480600101828161025491906102b9565b9160005260206000209001600083909190916101000a81548173ffffffffffffffffffffffffffffffffffffffff021916908373ffffffffffffffffffffffffffffffffffffffff160217905550506002600081548092919060010191905055505b50565b8154818355818115116102e0578183600052602060002091820191016102df91906102e5565b5b505050565b61030791905b808211156103035760008160009055506001016102eb565b5090565b905600a165627a7a7230582040222fc88603009272ed8a2cf9adb09c87026de2424f7c34f1df06e14d289a4d0029",
  "source": "pragma solidity ^0.4.17;\n\ncontract BetManager {\n    \n    address public creator;\n    address[] public betEvents;\n    uint public length;\n    \n    modifier onlyCreator() {\n        if (msg.sender == creator) \n        _ ;\n    }\n\n    function BetManager() public {\n        creator = msg.sender;\n        length = 0;\n    }\n    \n    function addEvent(address eventAddr) public onlyCreator {\n        betEvents.push(eventAddr);\n        length++;\n    }\n\n}",
  "sourcePath": "/home/ebin/Projects/EBeth/contracts/BetManager.sol",
  "compiler": {
    "name": "solc",
    "version": "0.4.19+commit.c4cbbb05.Emscripten.clang"
  },
  "schemaVersion": "1.0.1",
  "updatedAt": "2018-03-11T16:07:32.811Z"
}