{
  "contractName": "Betting",
  "abi": [
    {
      "constant": true,
      "inputs": [],
      "name": "creator",
      "outputs": [
        {
          "name": "",
          "type": "address"
        }
      ],
      "payable": false,
      "stateMutability": "view",
      "type": "function"
    },
    {
      "constant": true,
      "inputs": [
        {
          "name": "",
          "type": "address"
        }
      ],
      "name": "bettingIndices",
      "outputs": [
        {
          "name": "",
          "type": "uint256"
        }
      ],
      "payable": false,
      "stateMutability": "view",
      "type": "function"
    },
    {
      "constant": true,
      "inputs": [
        {
          "name": "",
          "type": "uint256"
        }
      ],
      "name": "bets",
      "outputs": [
        {
          "name": "addr",
          "type": "address"
        },
        {
          "name": "outcomeIndex",
          "type": "uint256"
        },
        {
          "name": "amount",
          "type": "uint256"
        },
        {
          "name": "winnings",
          "type": "uint256"
        },
        {
          "name": "paid",
          "type": "bool"
        }
      ],
      "payable": false,
      "stateMutability": "view",
      "type": "function"
    },
    {
      "constant": true,
      "inputs": [],
      "name": "outcomeOne",
      "outputs": [
        {
          "name": "",
          "type": "string"
        }
      ],
      "payable": false,
      "stateMutability": "view",
      "type": "function"
    },
    {
      "constant": true,
      "inputs": [
        {
          "name": "",
          "type": "uint256"
        }
      ],
      "name": "totalPools",
      "outputs": [
        {
          "name": "",
          "type": "uint256"
        }
      ],
      "payable": false,
      "stateMutability": "view",
      "type": "function"
    },
    {
      "constant": true,
      "inputs": [],
      "name": "teamTwoScore",
      "outputs": [
        {
          "name": "",
          "type": "uint256"
        }
      ],
      "payable": false,
      "stateMutability": "view",
      "type": "function"
    },
    {
      "constant": true,
      "inputs": [],
      "name": "outcomeTwo",
      "outputs": [
        {
          "name": "",
          "type": "string"
        }
      ],
      "payable": false,
      "stateMutability": "view",
      "type": "function"
    },
    {
      "constant": true,
      "inputs": [],
      "name": "kickOffTime",
      "outputs": [
        {
          "name": "",
          "type": "uint256"
        }
      ],
      "payable": false,
      "stateMutability": "view",
      "type": "function"
    },
    {
      "constant": true,
      "inputs": [],
      "name": "outcomeThree",
      "outputs": [
        {
          "name": "",
          "type": "string"
        }
      ],
      "payable": false,
      "stateMutability": "view",
      "type": "function"
    },
    {
      "constant": true,
      "inputs": [],
      "name": "jsonIndex",
      "outputs": [
        {
          "name": "",
          "type": "string"
        }
      ],
      "payable": false,
      "stateMutability": "view",
      "type": "function"
    },
    {
      "constant": true,
      "inputs": [],
      "name": "state",
      "outputs": [
        {
          "name": "",
          "type": "uint256"
        }
      ],
      "payable": false,
      "stateMutability": "view",
      "type": "function"
    },
    {
      "constant": true,
      "inputs": [],
      "name": "winningIndex",
      "outputs": [
        {
          "name": "",
          "type": "uint256"
        }
      ],
      "payable": false,
      "stateMutability": "view",
      "type": "function"
    },
    {
      "constant": true,
      "inputs": [],
      "name": "teamOneScore",
      "outputs": [
        {
          "name": "",
          "type": "uint256"
        }
      ],
      "payable": false,
      "stateMutability": "view",
      "type": "function"
    },
    {
      "inputs": [
        {
          "name": "_outcomeOne",
          "type": "string"
        },
        {
          "name": "_outcomeTwo",
          "type": "string"
        },
        {
          "name": "_outcomeThree",
          "type": "string"
        },
        {
          "name": "_kickOffTime",
          "type": "uint256"
        },
        {
          "name": "_jsonIndex",
          "type": "string"
        }
      ],
      "payable": false,
      "stateMutability": "nonpayable",
      "type": "constructor"
    },
    {
      "constant": false,
      "inputs": [
        {
          "name": "_outcomeIndex",
          "type": "uint256"
        }
      ],
      "name": "placeBet",
      "outputs": [],
      "payable": true,
      "stateMutability": "payable",
      "type": "function"
    },
    {
      "constant": false,
      "inputs": [
        {
          "name": "_outcomeIndex",
          "type": "uint256"
        }
      ],
      "name": "changeBet",
      "outputs": [],
      "payable": false,
      "stateMutability": "nonpayable",
      "type": "function"
    },
    {
      "constant": false,
      "inputs": [],
      "name": "eventStarted",
      "outputs": [],
      "payable": false,
      "stateMutability": "nonpayable",
      "type": "function"
    },
    {
      "constant": false,
      "inputs": [
        {
          "name": "myid",
          "type": "bytes32"
        },
        {
          "name": "result",
          "type": "string"
        }
      ],
      "name": "__callback",
      "outputs": [],
      "payable": false,
      "stateMutability": "nonpayable",
      "type": "function"
    },
    {
      "constant": false,
      "inputs": [
        {
          "name": "myid",
          "type": "bytes32"
        },
        {
          "name": "result",
          "type": "string"
        },
        {
          "name": "proof",
          "type": "bytes"
        }
      ],
      "name": "__callback",
      "outputs": [],
      "payable": false,
      "stateMutability": "nonpayable",
      "type": "function"
    },
    {
      "constant": false,
      "inputs": [],
      "name": "eventOver",
      "outputs": [],
      "payable": true,
      "stateMutability": "payable",
      "type": "function"
    }
  ],
  "bytecode": "0x606060405234156200001057600080fd5b60405162002d8138038062002d818339810160405280805182019190602001805182019190602001805182019190602001805190602001909190805182019190505033600560006101000a81548173ffffffffffffffffffffffffffffffffffffffff021916908373ffffffffffffffffffffffffffffffffffffffff1602179055508460069080519060200190620000ab9291906200015a565b508360079080519060200190620000c49291906200015a565b508260089080519060200190620000dd9291906200015a565b508160098190555080600d9080519060200190620000fd9291906200015a565b5060046040518059106200010e5750595b9080825280602002602001820160405250600a908051906020019062000136929190620001e1565b506005600b8190555060016012819055506000600c8190555050505050506200025b565b828054600181600116156101000203166002900490600052602060002090601f016020900481019282601f106200019d57805160ff1916838001178555620001ce565b82800160010185558215620001ce579182015b82811115620001cd578251825591602001919060010190620001b0565b5b509050620001dd919062000233565b5090565b82805482825590600052602060002090810192821562000220579160200282015b828111156200021f57825182559160200191906001019062000202565b5b5090506200022f919062000233565b5090565b6200025891905b80821115620002545760008160009055506001016200023a565b5090565b90565b612b16806200026b6000396000f300606060405260043610610107576000357c0100000000000000000000000000000000000000000000000000000000900463ffffffff16806302d05d3f1461010c5780630cfea6a91461016157806310fe7c48146101ae57806322af00fa146101c657806327dc297e1461024957806329f7c1f9146102b357806330af5c561461034157806338367f241461035657806338bbfa501461038d578063444fd95b1461043a57806362031c46146104635780636be705f0146104f157806376f9bbad1461051a578063878443ac146105a8578063b0252ac5146105b2578063c19d93fb14610640578063de75be4e14610669578063e6d453dc14610692578063edd7bb75146106bb575b600080fd5b341561011757600080fd5b61011f6106de565b604051808273ffffffffffffffffffffffffffffffffffffffff1673ffffffffffffffffffffffffffffffffffffffff16815260200191505060405180910390f35b341561016c57600080fd5b610198600480803573ffffffffffffffffffffffffffffffffffffffff16906020019091905050610704565b6040518082815260200191505060405180910390f35b6101c4600480803590602001909190505061071c565b005b34156101d157600080fd5b6101e760048080359060200190919050506108fb565b604051808673ffffffffffffffffffffffffffffffffffffffff1673ffffffffffffffffffffffffffffffffffffffff168152602001858152602001848152602001838152602001821515151581526020019550505050505060405180910390f35b341561025457600080fd5b6102b160048080356000191690602001909190803590602001908201803590602001908080601f0160208091040260200160405190810160405280939291908181526020018383808284378201915050505050509190505061096d565b005b34156102be57600080fd5b6102c661099f565b6040518080602001828103825283818151815260200191508051906020019080838360005b838110156103065780820151818401526020810190506102eb565b50505050905090810190601f1680156103335780820380516001836020036101000a031916815260200191505b509250505060405180910390f35b341561034c57600080fd5b610354610a3d565b005b341561036157600080fd5b6103776004808035906020019091905050610a9e565b6040518082815260200191505060405180910390f35b341561039857600080fd5b61043860048080356000191690602001909190803590602001908201803590602001908080601f0160208091040260200160405190810160405280939291908181526020018383808284378201915050505050509190803590602001908201803590602001908080601f01602080910402602001604051908101604052809392919081815260200183838082843782019150505050505091905050610ac2565b005b341561044557600080fd5b61044d610b97565b6040518082815260200191505060405180910390f35b341561046e57600080fd5b610476610b9d565b6040518080602001828103825283818151815260200191508051906020019080838360005b838110156104b657808201518184015260208101905061049b565b50505050905090810190601f1680156104e35780820380516001836020036101000a031916815260200191505b509250505060405180910390f35b34156104fc57600080fd5b610504610c3b565b6040518082815260200191505060405180910390f35b341561052557600080fd5b61052d610c41565b6040518080602001828103825283818151815260200191508051906020019080838360005b8381101561056d578082015181840152602081019050610552565b50505050905090810190601f16801561059a5780820380516001836020036101000a031916815260200191505b509250505060405180910390f35b6105b0610cdf565b005b34156105bd57600080fd5b6105c5610d48565b6040518080602001828103825283818151815260200191508051906020019080838360005b838110156106055780820151818401526020810190506105ea565b50505050905090810190601f1680156106325780820380516001836020036101000a031916815260200191505b509250505060405180910390f35b341561064b57600080fd5b610653610de6565b6040518082815260200191505060405180910390f35b341561067457600080fd5b61067c610dec565b6040518082815260200191505060405180910390f35b341561069d57600080fd5b6106a5610df2565b6040518082815260200191505060405180910390f35b34156106c657600080fd5b6106dc6004808035906020019091905050610df8565b005b600560009054906101000a900473ffffffffffffffffffffffffffffffffffffffff1681565b60106020528060005260406000206000915090505481565b6000600c5414151561072d57600080fd5b6012600081548092919060010191905055601060003373ffffffffffffffffffffffffffffffffffffffff1673ffffffffffffffffffffffffffffffffffffffff1681526020019081526020016000208190555060a0604051908101604052803373ffffffffffffffffffffffffffffffffffffffff16815260200182815260200134815260200160008152602001600015158152506011601060003373ffffffffffffffffffffffffffffffffffffffff1673ffffffffffffffffffffffffffffffffffffffff1681526020019081526020016000205481548110151561081157fe5b906000526020600020906005020160008201518160000160006101000a81548173ffffffffffffffffffffffffffffffffffffffff021916908373ffffffffffffffffffffffffffffffffffffffff16021790555060208201518160010155604082015181600201556060820151816003015560808201518160040160006101000a81548160ff02191690831515021790555090505034600a828154811015156108b757fe5b90600052602060002090016000828254019250508190555034600a60038154811015156108e057fe5b90600052602060002090016000828254019250508190555050565b60118181548110151561090a57fe5b90600052602060002090600502016000915090508060000160009054906101000a900473ffffffffffffffffffffffffffffffffffffffff16908060010154908060020154908060030154908060040160009054906101000a900460ff16905085565b61099b828260006040518059106109815750595b9080825280601f01601f1916602001820160405250610ac2565b5050565b60068054600181600116156101000203166002900480601f016020809104026020016040519081016040528092919081815260200182805460018160011615610100020316600290048015610a355780601f10610a0a57610100808354040283529160200191610a35565b820191906000526020600020905b815481529060010190602001808311610a1857829003601f168201915b505050505081565b600560009054906101000a900473ffffffffffffffffffffffffffffffffffffffff1673ffffffffffffffffffffffffffffffffffffffff163373ffffffffffffffffffffffffffffffffffffffff161415610a9c576001600c819055505b565b600a81815481101515610aad57fe5b90600052602060002090016000915090505481565b610aca61102f565b73ffffffffffffffffffffffffffffffffffffffff163373ffffffffffffffffffffffffffffffffffffffff16141515610b0357600080fd5b6002600c541415610b3257610b1782611345565b600e819055506003600c81905550610b2d611359565b610b92565b6003600c541415610b9157610b4682611345565b600f81905550600f54600e541115610b65576000600b81905550610b88565b600f54600e541015610b7e576002600b81905550610b87565b6001600b819055505b5b610b906114d0565b5b5b505050565b600f5481565b60078054600181600116156101000203166002900480601f016020809104026020016040519081016040528092919081815260200182805460018160011615610100020316600290048015610c335780601f10610c0857610100808354040283529160200191610c33565b820191906000526020600020905b815481529060010190602001808311610c1657829003601f168201915b505050505081565b60095481565b60088054600181600116156101000203166002900480601f016020809104026020016040519081016040528092919081815260200182805460018160011615610100020316600290048015610cd75780601f10610cac57610100808354040283529160200191610cd7565b820191906000526020600020905b815481529060010190602001808311610cba57829003601f168201915b505050505081565b600560009054906101000a900473ffffffffffffffffffffffffffffffffffffffff1673ffffffffffffffffffffffffffffffffffffffff163373ffffffffffffffffffffffffffffffffffffffff161415610d46576002600c81905550610d4561172f565b5b565b600d8054600181600116156101000203166002900480601f016020809104026020016040519081016040528092919081815260200182805460018160011615610100020316600290048015610dde5780601f10610db357610100808354040283529160200191610dde565b820191906000526020600020905b815481529060010190602001808311610dc157829003601f168201915b505050505081565b600c5481565b600b5481565b600e5481565b600080600c54148015610e4b57506000601060003373ffffffffffffffffffffffffffffffffffffffff1673ffffffffffffffffffffffffffffffffffffffff1681526020019081526020016000205414155b1515610e5657600080fd5b6011601060003373ffffffffffffffffffffffffffffffffffffffff1673ffffffffffffffffffffffffffffffffffffffff16815260200190815260200160002054815481101515610ea457fe5b906000526020600020906005020190508060020154600a8260010154815481101515610ecc57fe5b9060005260206000209001600082825403925050819055508060020154600a83815481101515610ef857fe5b906000526020600020900160008282540192505081905550818160010181905550806011601060003373ffffffffffffffffffffffffffffffffffffffff1673ffffffffffffffffffffffffffffffffffffffff16815260200190815260200160002054815481101515610f6857fe5b90600052602060002090600502016000820160009054906101000a900473ffffffffffffffffffffffffffffffffffffffff168160000160006101000a81548173ffffffffffffffffffffffffffffffffffffffff021916908373ffffffffffffffffffffffffffffffffffffffff1602179055506001820154816001015560028201548160020155600382015481600301556004820160009054906101000a900460ff168160040160006101000a81548160ff0219169083151502179055509050505050565b6000806000809054906101000a900473ffffffffffffffffffffffffffffffffffffffff1673ffffffffffffffffffffffffffffffffffffffff16148061109f5750600061109d6000809054906101000a900473ffffffffffffffffffffffffffffffffffffffff166118a6565b145b156110b0576110ae60006118b1565b505b6000809054906101000a900473ffffffffffffffffffffffffffffffffffffffff1673ffffffffffffffffffffffffffffffffffffffff166338cc48316000604051602001526040518163ffffffff167c0100000000000000000000000000000000000000000000000000000000028152600401602060405180830381600087803b151561113d57600080fd5b6102c65a03f1151561114e57600080fd5b5050506040518051905073ffffffffffffffffffffffffffffffffffffffff16600160009054906101000a900473ffffffffffffffffffffffffffffffffffffffff1673ffffffffffffffffffffffffffffffffffffffff16141515611297576000809054906101000a900473ffffffffffffffffffffffffffffffffffffffff1673ffffffffffffffffffffffffffffffffffffffff166338cc48316000604051602001526040518163ffffffff167c0100000000000000000000000000000000000000000000000000000000028152600401602060405180830381600087803b151561123b57600080fd5b6102c65a03f1151561124c57600080fd5b50505060405180519050600160006101000a81548173ffffffffffffffffffffffffffffffffffffffff021916908373ffffffffffffffffffffffffffffffffffffffff1602179055505b600160009054906101000a900473ffffffffffffffffffffffffffffffffffffffff1673ffffffffffffffffffffffffffffffffffffffff1663c281d19e6000604051602001526040518163ffffffff167c0100000000000000000000000000000000000000000000000000000000028152600401602060405180830381600087803b151561132557600080fd5b6102c65a03f1151561133657600080fd5b50505060405180519050905090565b60006113528260006118c2565b9050919050565b6114cd6040805190810160405280600381526020017f55524c00000000000000000000000000000000000000000000000000000000008152506114c8606060405190810160405280603581526020017f6a736f6e28687474703a2f2f66706c616c657274732e636f6d2f6170692f667081526020017f6c5f6c68735f31372e706870292e73636f7265732e0000000000000000000000815250600d8054600181600116156101000203166002900480601f0160208091040260200160405190810160405280929190818152602001828054600181600116156101000203166002900480156114885780601f1061145d57610100808354040283529160200191611488565b820191906000526020600020905b81548152906001019060200180831161146b57829003601f168201915b50505050506040805190810160405280600581526020017f2e615f7363000000000000000000000000000000000000000000000000000000815250611bbc565b611bfa565b50565b6000806003600c541415156114e457600080fd5b600191505b60125482101561172b5760118281548110151561150257fe5b90600052602060002090600502019050600b54816001015414801561153c5750600015158160040160009054906101000a900460ff161515145b1561171e576064605f600a600b5481548110151561155657fe5b906000526020600020900154836002015481151561157057fe5b04600a600b5481548110151561158257fe5b906000526020600020900154600a600381548110151561159e57fe5b9060005260206000209001540302028115156115b657fe5b04816002015401816003018190555060018160040160006101000a81548160ff021916908315150217905550806011838154811015156115f257fe5b90600052602060002090600502016000820160009054906101000a900473ffffffffffffffffffffffffffffffffffffffff168160000160006101000a81548173ffffffffffffffffffffffffffffffffffffffff021916908373ffffffffffffffffffffffffffffffffffffffff1602179055506001820154816001015560028201548160020155600382015481600301556004820160009054906101000a900460ff168160040160006101000a81548160ff0219169083151502179055509050508060000160009054906101000a900473ffffffffffffffffffffffffffffffffffffffff1673ffffffffffffffffffffffffffffffffffffffff166108fc82600301549081150290604051600060405180830381858888f19350505050151561171d57600080fd5b5b81806001019250506114e9565b5050565b6118a36040805190810160405280600381526020017f55524c000000000000000000000000000000000000000000000000000000000081525061189e606060405190810160405280603581526020017f6a736f6e28687474703a2f2f66706c616c657274732e636f6d2f6170692f667081526020017f6c5f6c68735f31372e706870292e73636f7265732e0000000000000000000000815250600d8054600181600116156101000203166002900480601f01602080910402602001604051908101604052809291908181526020018280546001816001161561010002031660029004801561185e5780601f106118335761010080835404028352916020019161185e565b820191906000526020600020905b81548152906001019060200180831161184157829003601f168201915b50505050506040805190810160405280600581526020017f2e685f7363000000000000000000000000000000000000000000000000000000815250611bbc565b611bfa565b50565b6000813b9050919050565b60006118bb61213c565b9050919050565b60006118cc612a1d565b60008060008693506000925060009150600090505b8351811015611b9d5760307f010000000000000000000000000000000000000000000000000000000000000002848281518110151561191c57fe5b9060200101517f010000000000000000000000000000000000000000000000000000000000000090047f0100000000000000000000000000000000000000000000000000000000000000027effffffffffffffffffffffffffffffffffffffffffffffffffffffffffffff191610158015611a34575060397f01000000000000000000000000000000000000000000000000000000000000000284828151811015156119c457fe5b9060200101517f010000000000000000000000000000000000000000000000000000000000000090047f0100000000000000000000000000000000000000000000000000000000000000027effffffffffffffffffffffffffffffffffffffffffffffffffffffffffffff191611155b15611ae5578115611a57576000861415611a4d57611b9d565b8580600190039650505b600a8302925060308482815181101515611a6d57fe5b9060200101517f010000000000000000000000000000000000000000000000000000000000000090047f0100000000000000000000000000000000000000000000000000000000000000027f010000000000000000000000000000000000000000000000000000000000000090040383019250611b90565b602e7f0100000000000000000000000000000000000000000000000000000000000000028482815181101515611b1757fe5b9060200101517f010000000000000000000000000000000000000000000000000000000000000090047f0100000000000000000000000000000000000000000000000000000000000000027effffffffffffffffffffffffffffffffffffffffffffffffffffffffffffff19161415611b8f57600191505b5b80806001019150506118e1565b6000861115611baf5785600a0a830292505b8294505050505092915050565b611bc4612a31565b611bf1848484602060405190810160405280600081525060206040519081016040528060008152506125cb565b90509392505050565b60008060008060009054906101000a900473ffffffffffffffffffffffffffffffffffffffff1673ffffffffffffffffffffffffffffffffffffffff161480611c6c57506000611c6a6000809054906101000a900473ffffffffffffffffffffffffffffffffffffffff166118a6565b145b15611c7d57611c7b60006118b1565b505b6000809054906101000a900473ffffffffffffffffffffffffffffffffffffffff1673ffffffffffffffffffffffffffffffffffffffff166338cc48316000604051602001526040518163ffffffff167c0100000000000000000000000000000000000000000000000000000000028152600401602060405180830381600087803b1515611d0a57600080fd5b6102c65a03f11515611d1b57600080fd5b5050506040518051905073ffffffffffffffffffffffffffffffffffffffff16600160009054906101000a900473ffffffffffffffffffffffffffffffffffffffff1673ffffffffffffffffffffffffffffffffffffffff16141515611e64576000809054906101000a900473ffffffffffffffffffffffffffffffffffffffff1673ffffffffffffffffffffffffffffffffffffffff166338cc48316000604051602001526040518163ffffffff167c0100000000000000000000000000000000000000000000000000000000028152600401602060405180830381600087803b1515611e0857600080fd5b6102c65a03f11515611e1957600080fd5b50505060405180519050600160006101000a81548173ffffffffffffffffffffffffffffffffffffffff021916908373ffffffffffffffffffffffffffffffffffffffff1602179055505b600160009054906101000a900473ffffffffffffffffffffffffffffffffffffffff1673ffffffffffffffffffffffffffffffffffffffff1663524f3889856000604051602001526040518263ffffffff167c01000000000000000000000000000000000000000000000000000000000281526004018080602001828103825283818151815260200191508051906020019080838360005b83811015611f17578082015181840152602081019050611efc565b50505050905090810190601f168015611f445780820380516001836020036101000a031916815260200191505b5092505050602060405180830381600087803b1515611f6257600080fd5b6102c65a03f11515611f7357600080fd5b50505060405180519050905062030d403a02670de0b6b3a764000001811115611fa25760006001029150612135565b600160009054906101000a900473ffffffffffffffffffffffffffffffffffffffff1673ffffffffffffffffffffffffffffffffffffffff1663adf59f9982600087876000604051602001526040518563ffffffff167c0100000000000000000000000000000000000000000000000000000000028152600401808481526020018060200180602001838103835285818151815260200191508051906020019080838360005b83811015612063578082015181840152602081019050612048565b50505050905090810190601f1680156120905780820380516001836020036101000a031916815260200191505b50838103825284818151815260200191508051906020019080838360005b838110156120c95780820151818401526020810190506120ae565b50505050905090810190601f1680156120f65780820380516001836020036101000a031916815260200191505b50955050505050506020604051808303818588803b151561211657600080fd5b6125ee5a03f1151561212757600080fd5b505050506040518051905091505b5092915050565b60008061215c731d3b2638a7cc9f2cb3d298a3da7a90b67e5506ed6118a6565b11156121fd57731d3b2638a7cc9f2cb3d298a3da7a90b67e5506ed6000806101000a81548173ffffffffffffffffffffffffffffffffffffffff021916908373ffffffffffffffffffffffffffffffffffffffff1602179055506121f46040805190810160405280600b81526020017f6574685f6d61696e6e6574000000000000000000000000000000000000000000815250612a03565b600190506125c8565b600061221c73c03a2615d5efaf5f49f60b7bb6583eaec212fdf16118a6565b11156122bd5773c03a2615d5efaf5f49f60b7bb6583eaec212fdf16000806101000a81548173ffffffffffffffffffffffffffffffffffffffff021916908373ffffffffffffffffffffffffffffffffffffffff1602179055506122b46040805190810160405280600c81526020017f6574685f726f707374656e330000000000000000000000000000000000000000815250612a03565b600190506125c8565b60006122dc73b7a07bcf2ba2f2703b24c0691b5278999c59ac7e6118a6565b111561237d5773b7a07bcf2ba2f2703b24c0691b5278999c59ac7e6000806101000a81548173ffffffffffffffffffffffffffffffffffffffff021916908373ffffffffffffffffffffffffffffffffffffffff1602179055506123746040805190810160405280600981526020017f6574685f6b6f76616e0000000000000000000000000000000000000000000000815250612a03565b600190506125c8565b600061239c73146500cfd35b22e4a392fe0adc06de1a1368ed486118a6565b111561243d5773146500cfd35b22e4a392fe0adc06de1a1368ed486000806101000a81548173ffffffffffffffffffffffffffffffffffffffff021916908373ffffffffffffffffffffffffffffffffffffffff1602179055506124346040805190810160405280600b81526020017f6574685f72696e6b656279000000000000000000000000000000000000000000815250612a03565b600190506125c8565b600061245c736f485c8bf6fc43ea212e93bbf8ce046c7f1cb4756118a6565b11156124bf57736f485c8bf6fc43ea212e93bbf8ce046c7f1cb4756000806101000a81548173ffffffffffffffffffffffffffffffffffffffff021916908373ffffffffffffffffffffffffffffffffffffffff160217905550600190506125c8565b60006124de7320e12a1f859b3feae5fb2a0a32c18f5a65555bbf6118a6565b1115612541577320e12a1f859b3feae5fb2a0a32c18f5a65555bbf6000806101000a81548173ffffffffffffffffffffffffffffffffffffffff021916908373ffffffffffffffffffffffffffffffffffffffff160217905550600190506125c8565b60006125607351efaf4c8b3c9afbd5ab9f4bbc82784ab6ef8faa6118a6565b11156125c3577351efaf4c8b3c9afbd5ab9f4bbc82784ab6ef8faa6000806101000a81548173ffffffffffffffffffffffffffffffffffffffff021916908373ffffffffffffffffffffffffffffffffffffffff160217905550600190506125c8565b600090505b90565b6125d3612a31565b6125db612a1d565b6125e3612a1d565b6125eb612a1d565b6125f3612a1d565b6125fb612a1d565b612603612a31565b61260b612a1d565b6000808e98508d97508c96508b95508a94508451865188518a518c51010101016040518059106126385750595b9080825280601f01601f1916602001820160405250935083925060009150600090505b885181101561270e57888181518110151561267257fe5b9060200101517f010000000000000000000000000000000000000000000000000000000000000090047f01000000000000000000000000000000000000000000000000000000000000000283838060010194508151811015156126d157fe5b9060200101907effffffffffffffffffffffffffffffffffffffffffffffffffffffffffffff1916908160001a905350808060010191505061265b565b600090505b87518110156127c657878181518110151561272a57fe5b9060200101517f010000000000000000000000000000000000000000000000000000000000000090047f010000000000000000000000000000000000000000000000000000000000000002838380600101945081518110151561278957fe5b9060200101907effffffffffffffffffffffffffffffffffffffffffffffffffffffffffffff1916908160001a9053508080600101915050612713565b600090505b865181101561287e5786818151811015156127e257fe5b9060200101517f010000000000000000000000000000000000000000000000000000000000000090047f010000000000000000000000000000000000000000000000000000000000000002838380600101945081518110151561284157fe5b9060200101907effffffffffffffffffffffffffffffffffffffffffffffffffffffffffffff1916908160001a90535080806001019150506127cb565b600090505b855181101561293657858181518110151561289a57fe5b9060200101517f010000000000000000000000000000000000000000000000000000000000000090047f01000000000000000000000000000000000000000000000000000000000000000283838060010194508151811015156128f957fe5b9060200101907effffffffffffffffffffffffffffffffffffffffffffffffffffffffffffff1916908160001a9053508080600101915050612883565b600090505b84518110156129ee57848181518110151561295257fe5b9060200101517f010000000000000000000000000000000000000000000000000000000000000090047f01000000000000000000000000000000000000000000000000000000000000000283838060010194508151811015156129b157fe5b9060200101907effffffffffffffffffffffffffffffffffffffffffffffffffffffffffffff1916908160001a905350808060010191505061293b565b82995050505050505050505095945050505050565b8060029080519060200190612a19929190612a45565b5050565b602060405190810160405280600081525090565b602060405190810160405280600081525090565b828054600181600116156101000203166002900490600052602060002090601f016020900481019282601f10612a8657805160ff1916838001178555612ab4565b82800160010185558215612ab4579182015b82811115612ab3578251825591602001919060010190612a98565b5b509050612ac19190612ac5565b5090565b612ae791905b80821115612ae3576000816000905550600101612acb565b5090565b905600a165627a7a723058205634fe69a944d3462cc95298137f7ffd941138162c01b256ecf2c42223909a9b0029",
  "source": "pragma solidity ^0.4.17;\n\nimport \"../installed_contracts/oraclize-api/contracts/usingOraclize.sol\";\n\ncontract Betting is usingOraclize {\n    \n    address public creator;\n    \n    string public outcomeOne;\n    string public outcomeTwo;\n    string public outcomeThree;\n    uint256 public kickOffTime;\n    \n    uint256[] public totalPools;\n    uint256 public winningIndex;\n    \n    uint public state;\n\n    string public jsonIndex;\n    uint public teamOneScore;\n    uint public teamTwoScore;\n\n    struct Bet {\n        address addr;\n        uint outcomeIndex;\n        uint256 amount;\n        uint256 winnings;\n        bool paid;\n    }\n    \n    mapping(address => uint) public bettingIndices;\n  \n    modifier onlyCreator() {\n        if (msg.sender == creator) \n        _ ;\n    }\n\n    Bet[] public bets;\n\n    uint private bettingIndex;\n\n    function Betting(string _outcomeOne, string _outcomeTwo, string _outcomeThree, uint256 _kickOffTime, string _jsonIndex) public {\n        creator = msg.sender;\n        outcomeOne = _outcomeOne;\n        outcomeTwo = _outcomeTwo;\n        outcomeThree = _outcomeThree;\n        kickOffTime = _kickOffTime;\n        jsonIndex = _jsonIndex;\n        totalPools = new uint256[](4);\n        winningIndex = 5;\n        bettingIndex = 1;\n        state = 0;\n    }\n    \n    function placeBet(uint _outcomeIndex) public payable {\n        require(state==0);\n        bettingIndices[msg.sender] = bettingIndex++;\n        bets[bettingIndices[msg.sender]] = Bet({addr: msg.sender, outcomeIndex: _outcomeIndex, amount: msg.value, paid: false, winnings: 0});\n        totalPools[_outcomeIndex] += msg.value;\n        totalPools[3] += msg.value;\n    }\n    \n    function changeBet(uint _outcomeIndex) public {\n        require(state==0 && bettingIndices[msg.sender]!=0);\n        Bet storage previousBet = bets[bettingIndices[msg.sender]];  \n        totalPools[previousBet.outcomeIndex] -= previousBet.amount;\n        totalPools[_outcomeIndex] += previousBet.amount;\n        previousBet.outcomeIndex = _outcomeIndex;\n        bets[bettingIndices[msg.sender]] = previousBet;\n    }\n\n    function eventStarted() public onlyCreator {\n        state = 1;\n    }\n\n    function __callback(bytes32 myid, string result, bytes proof) public {\n        if (msg.sender != oraclize_cbAddress()) revert();\n        if(state == 2){\n            teamOneScore = parseInt(result);\n            state = 3;\n            queryAwayScore();\n        }else if(state == 3){\n            teamTwoScore = parseInt(result);\n            if(teamOneScore>teamTwoScore){\n                winningIndex = 0;\n            }\n            else if(teamOneScore<teamTwoScore){\n                winningIndex = 2;\n            }else{\n                winningIndex = 1;\n            }\n            sendWinnings();\n        }\n    }\n\n    function eventOver() public payable onlyCreator {\n        state = 2;\n        queryHomeScore();\n    }\n\n    function queryHomeScore() private {\n        oraclize_query(\"URL\",   strConcat(\"json(http://fplalerts.com/api/fpl_lhs_17.php).scores.\",jsonIndex,\".h_sc\"));\n    }\n\n    function queryAwayScore() private {\n        oraclize_query(\"URL\",   strConcat(\"json(http://fplalerts.com/api/fpl_lhs_17.php).scores.\",jsonIndex,\".a_sc\"));\n    }\n\n    function sendWinnings() private {\n        require(state ==3);\n        for(uint i = 1; i<bettingIndex;i++){\n            Bet storage placedBet = bets[i];\n            if((placedBet.outcomeIndex == winningIndex) && (placedBet.paid == false)){\n                placedBet.winnings = placedBet.amount+((((totalPools[3]-totalPools[winningIndex])*(placedBet.amount/totalPools[winningIndex]))*(100-5))/100);\n                placedBet.paid = true;\n                bets[i] = placedBet;\n                placedBet.addr.transfer(placedBet.winnings);\n            }\n        }\n    }\n\n}\n",
  "sourcePath": "/home/ebin/Projects/EBeth/contracts/Betting.sol",
  "compiler": {
    "name": "solc",
    "version": "0.4.19+commit.c4cbbb05.Emscripten.clang"
  },
  "schemaVersion": "1.0.1",
  "updatedAt": "2018-03-18T16:22:59.467Z"
}