{
  "contractName": "Betting",
  "abi": [
    {
      "constant": true,
      "inputs": [],
      "name": "creator",
      "outputs": [
        {
          "name": "",
          "type": "address"
        }
      ],
      "payable": false,
      "stateMutability": "view",
      "type": "function"
    },
    {
      "constant": true,
      "inputs": [],
      "name": "outcomeOne",
      "outputs": [
        {
          "name": "",
          "type": "string"
        }
      ],
      "payable": false,
      "stateMutability": "view",
      "type": "function"
    },
    {
      "constant": true,
      "inputs": [
        {
          "name": "",
          "type": "uint256"
        }
      ],
      "name": "totalPools",
      "outputs": [
        {
          "name": "",
          "type": "uint256"
        }
      ],
      "payable": false,
      "stateMutability": "view",
      "type": "function"
    },
    {
      "constant": true,
      "inputs": [],
      "name": "teamTwoScore",
      "outputs": [
        {
          "name": "",
          "type": "uint256"
        }
      ],
      "payable": false,
      "stateMutability": "view",
      "type": "function"
    },
    {
      "constant": true,
      "inputs": [],
      "name": "outcomeTwo",
      "outputs": [
        {
          "name": "",
          "type": "string"
        }
      ],
      "payable": false,
      "stateMutability": "view",
      "type": "function"
    },
    {
      "constant": true,
      "inputs": [],
      "name": "kickOffTime",
      "outputs": [
        {
          "name": "",
          "type": "uint256"
        }
      ],
      "payable": false,
      "stateMutability": "view",
      "type": "function"
    },
    {
      "constant": true,
      "inputs": [],
      "name": "outcomeThree",
      "outputs": [
        {
          "name": "",
          "type": "string"
        }
      ],
      "payable": false,
      "stateMutability": "view",
      "type": "function"
    },
    {
      "constant": true,
      "inputs": [
        {
          "name": "",
          "type": "address"
        }
      ],
      "name": "bets",
      "outputs": [
        {
          "name": "outcomeIndex",
          "type": "uint256"
        },
        {
          "name": "amount",
          "type": "uint256"
        },
        {
          "name": "winnings",
          "type": "uint256"
        },
        {
          "name": "paid",
          "type": "bool"
        }
      ],
      "payable": false,
      "stateMutability": "view",
      "type": "function"
    },
    {
      "constant": true,
      "inputs": [],
      "name": "jsonIndex",
      "outputs": [
        {
          "name": "",
          "type": "string"
        }
      ],
      "payable": false,
      "stateMutability": "view",
      "type": "function"
    },
    {
      "constant": true,
      "inputs": [],
      "name": "state",
      "outputs": [
        {
          "name": "",
          "type": "uint256"
        }
      ],
      "payable": false,
      "stateMutability": "view",
      "type": "function"
    },
    {
      "constant": true,
      "inputs": [],
      "name": "winningIndex",
      "outputs": [
        {
          "name": "",
          "type": "uint256"
        }
      ],
      "payable": false,
      "stateMutability": "view",
      "type": "function"
    },
    {
      "constant": true,
      "inputs": [],
      "name": "teamOneScore",
      "outputs": [
        {
          "name": "",
          "type": "uint256"
        }
      ],
      "payable": false,
      "stateMutability": "view",
      "type": "function"
    },
    {
      "inputs": [
        {
          "name": "_outcomeOne",
          "type": "string"
        },
        {
          "name": "_outcomeTwo",
          "type": "string"
        },
        {
          "name": "_outcomeThree",
          "type": "string"
        },
        {
          "name": "_kickOffTime",
          "type": "uint256"
        },
        {
          "name": "_jsonIndex",
          "type": "string"
        }
      ],
      "payable": false,
      "stateMutability": "nonpayable",
      "type": "constructor"
    },
    {
      "constant": false,
      "inputs": [
        {
          "name": "_outcomeIndex",
          "type": "uint256"
        }
      ],
      "name": "placeBet",
      "outputs": [],
      "payable": true,
      "stateMutability": "payable",
      "type": "function"
    },
    {
      "constant": false,
      "inputs": [
        {
          "name": "_outcomeIndex",
          "type": "uint256"
        }
      ],
      "name": "changeBet",
      "outputs": [],
      "payable": false,
      "stateMutability": "nonpayable",
      "type": "function"
    },
    {
      "constant": false,
      "inputs": [],
      "name": "eventStarted",
      "outputs": [],
      "payable": false,
      "stateMutability": "nonpayable",
      "type": "function"
    },
    {
      "constant": false,
      "inputs": [
        {
          "name": "myid",
          "type": "bytes32"
        },
        {
          "name": "result",
          "type": "string"
        }
      ],
      "name": "__callback",
      "outputs": [],
      "payable": false,
      "stateMutability": "nonpayable",
      "type": "function"
    },
    {
      "constant": false,
      "inputs": [
        {
          "name": "myid",
          "type": "bytes32"
        },
        {
          "name": "result",
          "type": "string"
        },
        {
          "name": "proof",
          "type": "bytes"
        }
      ],
      "name": "__callback",
      "outputs": [],
      "payable": false,
      "stateMutability": "nonpayable",
      "type": "function"
    },
    {
      "constant": false,
      "inputs": [],
      "name": "eventOver",
      "outputs": [],
      "payable": true,
      "stateMutability": "payable",
      "type": "function"
    },
    {
      "constant": false,
      "inputs": [],
      "name": "claimWinnings",
      "outputs": [],
      "payable": false,
      "stateMutability": "nonpayable",
      "type": "function"
    }
  ],
  "bytecode": "0x606060405234156200001057600080fd5b60405162002aa038038062002aa08339810160405280805182019190602001805182019190602001805182019190602001805190602001909190805182019190505033600560006101000a81548173ffffffffffffffffffffffffffffffffffffffff021916908373ffffffffffffffffffffffffffffffffffffffff1602179055508460069080519060200190620000ab92919062000152565b508360079080519060200190620000c492919062000152565b508260089080519060200190620000dd92919062000152565b508160098190555080600d9080519060200190620000fd92919062000152565b5060046040518059106200010e5750595b9080825280602002602001820160405250600a908051906020019062000136929190620001d9565b506005600b819055506000600c81905550505050505062000253565b828054600181600116156101000203166002900490600052602060002090601f016020900481019282601f106200019557805160ff1916838001178555620001c6565b82800160010185558215620001c6579182015b82811115620001c5578251825591602001919060010190620001a8565b5b509050620001d591906200022b565b5090565b82805482825590600052602060002090810192821562000218579160200282015b8281111562000217578251825591602001919060010190620001fa565b5b5090506200022791906200022b565b5090565b6200025091905b808211156200024c57600081600090555060010162000232565b5090565b90565b61283d80620002636000396000f300606060405260043610610107576000357c0100000000000000000000000000000000000000000000000000000000900463ffffffff16806302d05d3f1461010c57806310fe7c481461016157806327dc297e1461017957806329f7c1f9146101e357806330af5c561461027157806338367f241461028657806338bbfa50146102bd578063444fd95b1461036a57806362031c46146103935780636be705f01461042157806376f9bbad1461044a578063878443ac146104d857806389a78f1a146104e2578063b0252ac514610548578063b401faf1146105d6578063c19d93fb146105eb578063de75be4e14610614578063e6d453dc1461063d578063edd7bb7514610666575b600080fd5b341561011757600080fd5b61011f610689565b604051808273ffffffffffffffffffffffffffffffffffffffff1673ffffffffffffffffffffffffffffffffffffffff16815260200191505060405180910390f35b61017760048080359060200190919050506106af565b005b341561018457600080fd5b6101e160048080356000191690602001909190803590602001908201803590602001908080601f016020809104026020016040519081016040528093929190818152602001838380828437820191505050505050919050506107ba565b005b34156101ee57600080fd5b6101f66107ec565b6040518080602001828103825283818151815260200191508051906020019080838360005b8381101561023657808201518184015260208101905061021b565b50505050905090810190601f1680156102635780820380516001836020036101000a031916815260200191505b509250505060405180910390f35b341561027c57600080fd5b61028461088a565b005b341561029157600080fd5b6102a760048080359060200190919050506108eb565b6040518082815260200191505060405180910390f35b34156102c857600080fd5b61036860048080356000191690602001909190803590602001908201803590602001908080601f0160208091040260200160405190810160405280939291908181526020018383808284378201915050505050509190803590602001908201803590602001908080601f0160208091040260200160405190810160405280939291908181526020018383808284378201915050505050509190505061090f565b005b341561037557600080fd5b61037d6109dc565b6040518082815260200191505060405180910390f35b341561039e57600080fd5b6103a66109e2565b6040518080602001828103825283818151815260200191508051906020019080838360005b838110156103e65780820151818401526020810190506103cb565b50505050905090810190601f1680156104135780820380516001836020036101000a031916815260200191505b509250505060405180910390f35b341561042c57600080fd5b610434610a80565b6040518082815260200191505060405180910390f35b341561045557600080fd5b61045d610a86565b6040518080602001828103825283818151815260200191508051906020019080838360005b8381101561049d578082015181840152602081019050610482565b50505050905090810190601f1680156104ca5780820380516001836020036101000a031916815260200191505b509250505060405180910390f35b6104e0610b24565b005b34156104ed57600080fd5b610519600480803573ffffffffffffffffffffffffffffffffffffffff16906020019091905050610b8d565b604051808581526020018481526020018381526020018215151515815260200194505050505060405180910390f35b341561055357600080fd5b61055b610bca565b6040518080602001828103825283818151815260200191508051906020019080838360005b8381101561059b578082015181840152602081019050610580565b50505050905090810190601f1680156105c85780820380516001836020036101000a031916815260200191505b509250505060405180910390f35b34156105e157600080fd5b6105e9610c68565b005b34156105f657600080fd5b6105fe610e59565b6040518082815260200191505060405180910390f35b341561061f57600080fd5b610627610e5f565b6040518082815260200191505060405180910390f35b341561064857600080fd5b610650610e65565b6040518082815260200191505060405180910390f35b341561067157600080fd5b6106876004808035906020019091905050610e6b565b005b600560009054906101000a900473ffffffffffffffffffffffffffffffffffffffff1681565b6000600c541415156106c057600080fd5b6080604051908101604052808281526020013481526020016000815260200160001515815250601060003373ffffffffffffffffffffffffffffffffffffffff1673ffffffffffffffffffffffffffffffffffffffff16815260200190815260200160002060008201518160000155602082015181600101556040820151816002015560608201518160030160006101000a81548160ff02191690831515021790555090505034600a8281548110151561077657fe5b90600052602060002090016000828254019250508190555034600a600381548110151561079f57fe5b90600052602060002090016000828254019250508190555050565b6107e8828260006040518059106107ce5750595b9080825280601f01601f191660200182016040525061090f565b5050565b60068054600181600116156101000203166002900480601f0160208091040260200160405190810160405280929190818152602001828054600181600116156101000203166002900480156108825780601f1061085757610100808354040283529160200191610882565b820191906000526020600020905b81548152906001019060200180831161086557829003601f168201915b505050505081565b600560009054906101000a900473ffffffffffffffffffffffffffffffffffffffff1673ffffffffffffffffffffffffffffffffffffffff163373ffffffffffffffffffffffffffffffffffffffff1614156108e9576001600c819055505b565b600a818154811015156108fa57fe5b90600052602060002090016000915090505481565b610917610fb5565b73ffffffffffffffffffffffffffffffffffffffff163373ffffffffffffffffffffffffffffffffffffffff1614151561095057600080fd5b6002600c54141561097f57610964826112cb565b600e819055506003600c8190555061097a6112df565b6109d7565b6003600c5414156109d657610993826112cb565b600f81905550600f54600e5411156109b2576000600b819055506109d5565b600f54600e5410156109cb576002600b819055506109d4565b6001600b819055505b5b5b5b505050565b600f5481565b60078054600181600116156101000203166002900480601f016020809104026020016040519081016040528092919081815260200182805460018160011615610100020316600290048015610a785780601f10610a4d57610100808354040283529160200191610a78565b820191906000526020600020905b815481529060010190602001808311610a5b57829003601f168201915b505050505081565b60095481565b60088054600181600116156101000203166002900480601f016020809104026020016040519081016040528092919081815260200182805460018160011615610100020316600290048015610b1c5780601f10610af157610100808354040283529160200191610b1c565b820191906000526020600020905b815481529060010190602001808311610aff57829003601f168201915b505050505081565b600560009054906101000a900473ffffffffffffffffffffffffffffffffffffffff1673ffffffffffffffffffffffffffffffffffffffff163373ffffffffffffffffffffffffffffffffffffffff161415610b8b576002600c81905550610b8a611456565b5b565b60106020528060005260406000206000915090508060000154908060010154908060020154908060030160009054906101000a900460ff16905084565b600d8054600181600116156101000203166002900480601f016020809104026020016040519081016040528092919081815260200182805460018160011615610100020316600290048015610c605780601f10610c3557610100808354040283529160200191610c60565b820191906000526020600020905b815481529060010190602001808311610c4357829003601f168201915b505050505081565b6000601060003373ffffffffffffffffffffffffffffffffffffffff1673ffffffffffffffffffffffffffffffffffffffff1681526020019081526020016000209050600b548160000154141515610cbf57600080fd5b60646063600a600b54815481101515610cd457fe5b9060005260206000209001548360010154811515610cee57fe5b04600a600b54815481101515610d0057fe5b906000526020600020900154600a6003815481101515610d1c57fe5b906000526020600020900154030202811515610d3457fe5b048160010154018160020181905550600015158160030160009054906101000a900460ff161515141515610d6757600080fd5b60018160030160006101000a81548160ff02191690831515021790555080601060003373ffffffffffffffffffffffffffffffffffffffff1673ffffffffffffffffffffffffffffffffffffffff1681526020019081526020016000206000820154816000015560018201548160010155600282015481600201556003820160009054906101000a900460ff168160030160006101000a81548160ff0219169083151502179055509050503373ffffffffffffffffffffffffffffffffffffffff166108fc82600201549081150290604051600060405180830381858888f193505050501515610e5657600080fd5b50565b600c5481565b600b5481565b600e5481565b600080600c54141515610e7d57600080fd5b601060003373ffffffffffffffffffffffffffffffffffffffff1673ffffffffffffffffffffffffffffffffffffffff16815260200190815260200160002090508060010154600a8260000154815481101515610ed657fe5b9060005260206000209001600082825403925050819055508060010154600a83815481101515610f0257fe5b90600052602060002090016000828254019250508190555081816000018190555080601060003373ffffffffffffffffffffffffffffffffffffffff1673ffffffffffffffffffffffffffffffffffffffff1681526020019081526020016000206000820154816000015560018201548160010155600282015481600201556003820160009054906101000a900460ff168160030160006101000a81548160ff0219169083151502179055509050505050565b6000806000809054906101000a900473ffffffffffffffffffffffffffffffffffffffff1673ffffffffffffffffffffffffffffffffffffffff161480611025575060006110236000809054906101000a900473ffffffffffffffffffffffffffffffffffffffff166115cd565b145b156110365761103460006115d8565b505b6000809054906101000a900473ffffffffffffffffffffffffffffffffffffffff1673ffffffffffffffffffffffffffffffffffffffff166338cc48316000604051602001526040518163ffffffff167c0100000000000000000000000000000000000000000000000000000000028152600401602060405180830381600087803b15156110c357600080fd5b6102c65a03f115156110d457600080fd5b5050506040518051905073ffffffffffffffffffffffffffffffffffffffff16600160009054906101000a900473ffffffffffffffffffffffffffffffffffffffff1673ffffffffffffffffffffffffffffffffffffffff1614151561121d576000809054906101000a900473ffffffffffffffffffffffffffffffffffffffff1673ffffffffffffffffffffffffffffffffffffffff166338cc48316000604051602001526040518163ffffffff167c0100000000000000000000000000000000000000000000000000000000028152600401602060405180830381600087803b15156111c157600080fd5b6102c65a03f115156111d257600080fd5b50505060405180519050600160006101000a81548173ffffffffffffffffffffffffffffffffffffffff021916908373ffffffffffffffffffffffffffffffffffffffff1602179055505b600160009054906101000a900473ffffffffffffffffffffffffffffffffffffffff1673ffffffffffffffffffffffffffffffffffffffff1663c281d19e6000604051602001526040518163ffffffff167c0100000000000000000000000000000000000000000000000000000000028152600401602060405180830381600087803b15156112ab57600080fd5b6102c65a03f115156112bc57600080fd5b50505060405180519050905090565b60006112d88260006115e9565b9050919050565b6114536040805190810160405280600381526020017f55524c000000000000000000000000000000000000000000000000000000000081525061144e606060405190810160405280603581526020017f6a736f6e28687474703a2f2f66706c616c657274732e636f6d2f6170692f667081526020017f6c5f6c68735f31372e706870292e73636f7265732e0000000000000000000000815250600d8054600181600116156101000203166002900480601f01602080910402602001604051908101604052809291908181526020018280546001816001161561010002031660029004801561140e5780601f106113e35761010080835404028352916020019161140e565b820191906000526020600020905b8154815290600101906020018083116113f157829003601f168201915b50505050506040805190810160405280600581526020017f2e615f73630000000000000000000000000000000000000000000000000000008152506118e3565b611921565b50565b6115ca6040805190810160405280600381526020017f55524c00000000000000000000000000000000000000000000000000000000008152506115c5606060405190810160405280603581526020017f6a736f6e28687474703a2f2f66706c616c657274732e636f6d2f6170692f667081526020017f6c5f6c68735f31372e706870292e73636f7265732e0000000000000000000000815250600d8054600181600116156101000203166002900480601f0160208091040260200160405190810160405280929190818152602001828054600181600116156101000203166002900480156115855780601f1061155a57610100808354040283529160200191611585565b820191906000526020600020905b81548152906001019060200180831161156857829003601f168201915b50505050506040805190810160405280600581526020017f2e685f73630000000000000000000000000000000000000000000000000000008152506118e3565b611921565b50565b6000813b9050919050565b60006115e2611e63565b9050919050565b60006115f3612744565b60008060008693506000925060009150600090505b83518110156118c45760307f010000000000000000000000000000000000000000000000000000000000000002848281518110151561164357fe5b9060200101517f010000000000000000000000000000000000000000000000000000000000000090047f0100000000000000000000000000000000000000000000000000000000000000027effffffffffffffffffffffffffffffffffffffffffffffffffffffffffffff19161015801561175b575060397f01000000000000000000000000000000000000000000000000000000000000000284828151811015156116eb57fe5b9060200101517f010000000000000000000000000000000000000000000000000000000000000090047f0100000000000000000000000000000000000000000000000000000000000000027effffffffffffffffffffffffffffffffffffffffffffffffffffffffffffff191611155b1561180c57811561177e576000861415611774576118c4565b8580600190039650505b600a830292506030848281518110151561179457fe5b9060200101517f010000000000000000000000000000000000000000000000000000000000000090047f0100000000000000000000000000000000000000000000000000000000000000027f0100000000000000000000000000000000000000000000000000000000000000900403830192506118b7565b602e7f010000000000000000000000000000000000000000000000000000000000000002848281518110151561183e57fe5b9060200101517f010000000000000000000000000000000000000000000000000000000000000090047f0100000000000000000000000000000000000000000000000000000000000000027effffffffffffffffffffffffffffffffffffffffffffffffffffffffffffff191614156118b657600191505b5b8080600101915050611608565b60008611156118d65785600a0a830292505b8294505050505092915050565b6118eb612758565b611918848484602060405190810160405280600081525060206040519081016040528060008152506122f2565b90509392505050565b60008060008060009054906101000a900473ffffffffffffffffffffffffffffffffffffffff1673ffffffffffffffffffffffffffffffffffffffff161480611993575060006119916000809054906101000a900473ffffffffffffffffffffffffffffffffffffffff166115cd565b145b156119a4576119a260006115d8565b505b6000809054906101000a900473ffffffffffffffffffffffffffffffffffffffff1673ffffffffffffffffffffffffffffffffffffffff166338cc48316000604051602001526040518163ffffffff167c0100000000000000000000000000000000000000000000000000000000028152600401602060405180830381600087803b1515611a3157600080fd5b6102c65a03f11515611a4257600080fd5b5050506040518051905073ffffffffffffffffffffffffffffffffffffffff16600160009054906101000a900473ffffffffffffffffffffffffffffffffffffffff1673ffffffffffffffffffffffffffffffffffffffff16141515611b8b576000809054906101000a900473ffffffffffffffffffffffffffffffffffffffff1673ffffffffffffffffffffffffffffffffffffffff166338cc48316000604051602001526040518163ffffffff167c0100000000000000000000000000000000000000000000000000000000028152600401602060405180830381600087803b1515611b2f57600080fd5b6102c65a03f11515611b4057600080fd5b50505060405180519050600160006101000a81548173ffffffffffffffffffffffffffffffffffffffff021916908373ffffffffffffffffffffffffffffffffffffffff1602179055505b600160009054906101000a900473ffffffffffffffffffffffffffffffffffffffff1673ffffffffffffffffffffffffffffffffffffffff1663524f3889856000604051602001526040518263ffffffff167c01000000000000000000000000000000000000000000000000000000000281526004018080602001828103825283818151815260200191508051906020019080838360005b83811015611c3e578082015181840152602081019050611c23565b50505050905090810190601f168015611c6b5780820380516001836020036101000a031916815260200191505b5092505050602060405180830381600087803b1515611c8957600080fd5b6102c65a03f11515611c9a57600080fd5b50505060405180519050905062030d403a02670de0b6b3a764000001811115611cc95760006001029150611e5c565b600160009054906101000a900473ffffffffffffffffffffffffffffffffffffffff1673ffffffffffffffffffffffffffffffffffffffff1663adf59f9982600087876000604051602001526040518563ffffffff167c0100000000000000000000000000000000000000000000000000000000028152600401808481526020018060200180602001838103835285818151815260200191508051906020019080838360005b83811015611d8a578082015181840152602081019050611d6f565b50505050905090810190601f168015611db75780820380516001836020036101000a031916815260200191505b50838103825284818151815260200191508051906020019080838360005b83811015611df0578082015181840152602081019050611dd5565b50505050905090810190601f168015611e1d5780820380516001836020036101000a031916815260200191505b50955050505050506020604051808303818588803b1515611e3d57600080fd5b6125ee5a03f11515611e4e57600080fd5b505050506040518051905091505b5092915050565b600080611e83731d3b2638a7cc9f2cb3d298a3da7a90b67e5506ed6115cd565b1115611f2457731d3b2638a7cc9f2cb3d298a3da7a90b67e5506ed6000806101000a81548173ffffffffffffffffffffffffffffffffffffffff021916908373ffffffffffffffffffffffffffffffffffffffff160217905550611f1b6040805190810160405280600b81526020017f6574685f6d61696e6e657400000000000000000000000000000000000000000081525061272a565b600190506122ef565b6000611f4373c03a2615d5efaf5f49f60b7bb6583eaec212fdf16115cd565b1115611fe45773c03a2615d5efaf5f49f60b7bb6583eaec212fdf16000806101000a81548173ffffffffffffffffffffffffffffffffffffffff021916908373ffffffffffffffffffffffffffffffffffffffff160217905550611fdb6040805190810160405280600c81526020017f6574685f726f707374656e33000000000000000000000000000000000000000081525061272a565b600190506122ef565b600061200373b7a07bcf2ba2f2703b24c0691b5278999c59ac7e6115cd565b11156120a45773b7a07bcf2ba2f2703b24c0691b5278999c59ac7e6000806101000a81548173ffffffffffffffffffffffffffffffffffffffff021916908373ffffffffffffffffffffffffffffffffffffffff16021790555061209b6040805190810160405280600981526020017f6574685f6b6f76616e000000000000000000000000000000000000000000000081525061272a565b600190506122ef565b60006120c373146500cfd35b22e4a392fe0adc06de1a1368ed486115cd565b11156121645773146500cfd35b22e4a392fe0adc06de1a1368ed486000806101000a81548173ffffffffffffffffffffffffffffffffffffffff021916908373ffffffffffffffffffffffffffffffffffffffff16021790555061215b6040805190810160405280600b81526020017f6574685f72696e6b65627900000000000000000000000000000000000000000081525061272a565b600190506122ef565b6000612183736f485c8bf6fc43ea212e93bbf8ce046c7f1cb4756115cd565b11156121e657736f485c8bf6fc43ea212e93bbf8ce046c7f1cb4756000806101000a81548173ffffffffffffffffffffffffffffffffffffffff021916908373ffffffffffffffffffffffffffffffffffffffff160217905550600190506122ef565b60006122057320e12a1f859b3feae5fb2a0a32c18f5a65555bbf6115cd565b1115612268577320e12a1f859b3feae5fb2a0a32c18f5a65555bbf6000806101000a81548173ffffffffffffffffffffffffffffffffffffffff021916908373ffffffffffffffffffffffffffffffffffffffff160217905550600190506122ef565b60006122877351efaf4c8b3c9afbd5ab9f4bbc82784ab6ef8faa6115cd565b11156122ea577351efaf4c8b3c9afbd5ab9f4bbc82784ab6ef8faa6000806101000a81548173ffffffffffffffffffffffffffffffffffffffff021916908373ffffffffffffffffffffffffffffffffffffffff160217905550600190506122ef565b600090505b90565b6122fa612758565b612302612744565b61230a612744565b612312612744565b61231a612744565b612322612744565b61232a612758565b612332612744565b6000808e98508d97508c96508b95508a94508451865188518a518c510101010160405180591061235f5750595b9080825280601f01601f1916602001820160405250935083925060009150600090505b885181101561243557888181518110151561239957fe5b9060200101517f010000000000000000000000000000000000000000000000000000000000000090047f01000000000000000000000000000000000000000000000000000000000000000283838060010194508151811015156123f857fe5b9060200101907effffffffffffffffffffffffffffffffffffffffffffffffffffffffffffff1916908160001a9053508080600101915050612382565b600090505b87518110156124ed57878181518110151561245157fe5b9060200101517f010000000000000000000000000000000000000000000000000000000000000090047f01000000000000000000000000000000000000000000000000000000000000000283838060010194508151811015156124b057fe5b9060200101907effffffffffffffffffffffffffffffffffffffffffffffffffffffffffffff1916908160001a905350808060010191505061243a565b600090505b86518110156125a557868181518110151561250957fe5b9060200101517f010000000000000000000000000000000000000000000000000000000000000090047f010000000000000000000000000000000000000000000000000000000000000002838380600101945081518110151561256857fe5b9060200101907effffffffffffffffffffffffffffffffffffffffffffffffffffffffffffff1916908160001a90535080806001019150506124f2565b600090505b855181101561265d5785818151811015156125c157fe5b9060200101517f010000000000000000000000000000000000000000000000000000000000000090047f010000000000000000000000000000000000000000000000000000000000000002838380600101945081518110151561262057fe5b9060200101907effffffffffffffffffffffffffffffffffffffffffffffffffffffffffffff1916908160001a90535080806001019150506125aa565b600090505b845181101561271557848181518110151561267957fe5b9060200101517f010000000000000000000000000000000000000000000000000000000000000090047f01000000000000000000000000000000000000000000000000000000000000000283838060010194508151811015156126d857fe5b9060200101907effffffffffffffffffffffffffffffffffffffffffffffffffffffffffffff1916908160001a9053508080600101915050612662565b82995050505050505050505095945050505050565b806002908051906020019061274092919061276c565b5050565b602060405190810160405280600081525090565b602060405190810160405280600081525090565b828054600181600116156101000203166002900490600052602060002090601f016020900481019282601f106127ad57805160ff19168380011785556127db565b828001600101855582156127db579182015b828111156127da5782518255916020019190600101906127bf565b5b5090506127e891906127ec565b5090565b61280e91905b8082111561280a5760008160009055506001016127f2565b5090565b905600a165627a7a723058201cea5591059d968df142cdd29c1034b02d126a881e1426e3f1b933690c935d6c0029",
  "source": "pragma solidity ^0.4.17;\n\nimport \"../installed_contracts/oraclize-api/contracts/usingOraclize.sol\";\n\ncontract Betting is usingOraclize {\n    \n    address public creator;\n    \n    string public outcomeOne;\n    string public outcomeTwo;\n    string public outcomeThree;\n    uint256 public kickOffTime;\n    \n    uint256[] public totalPools;\n    uint256 public winningIndex;\n    \n    uint public state;\n\n    string public jsonIndex;\n    uint public teamOneScore;\n    uint public teamTwoScore;\n\n    struct Bet {\n        uint outcomeIndex;\n        uint256 amount;\n        uint256 winnings;\n        bool paid;\n    }\n    \n    mapping(address => Bet) public bets;\n  \n    modifier onlyCreator() {\n        if (msg.sender == creator) \n        _ ;\n    }\n\n    function Betting(string _outcomeOne, string _outcomeTwo, string _outcomeThree, uint256 _kickOffTime, string _jsonIndex) public {\n        creator = msg.sender;\n        outcomeOne = _outcomeOne;\n        outcomeTwo = _outcomeTwo;\n        outcomeThree = _outcomeThree;\n        kickOffTime = _kickOffTime;\n        jsonIndex = _jsonIndex;\n        totalPools = new uint256[](4);\n        winningIndex = 5;\n        state = 0;\n    }\n    \n    function placeBet(uint _outcomeIndex) public payable {\n        require(state==0);\n        bets[msg.sender] = Bet({outcomeIndex: _outcomeIndex, amount: msg.value, paid: false, winnings: 0});\n        totalPools[_outcomeIndex] += msg.value;\n        totalPools[3] += msg.value;\n    }\n    \n    function changeBet(uint _outcomeIndex) public {\n        require(state==0);\n        Bet storage previousBet = bets[msg.sender];  \n        totalPools[previousBet.outcomeIndex] -= previousBet.amount;\n        totalPools[_outcomeIndex] += previousBet.amount;\n        previousBet.outcomeIndex = _outcomeIndex;\n        bets[msg.sender] = previousBet;\n    }\n\n    function eventStarted() public onlyCreator {\n        state = 1;\n    }\n\n    function __callback(bytes32 myid, string result, bytes proof) public {\n        if (msg.sender != oraclize_cbAddress()) revert();\n        if(state == 2){\n            teamOneScore = parseInt(result);\n            state = 3;\n            queryAwayScore();\n        }else if(state == 3){\n            teamTwoScore = parseInt(result);\n            if(teamOneScore>teamTwoScore){\n                winningIndex = 0;\n            }\n            else if(teamOneScore<teamTwoScore){\n                winningIndex = 2;\n            }else{\n                winningIndex = 1;\n            }\n        }\n    }\n\n    function eventOver() public payable onlyCreator {\n        state = 2;\n        queryHomeScore();\n    }\n\n    function queryHomeScore() private {\n        oraclize_query(\"URL\",   strConcat(\"json(http://fplalerts.com/api/fpl_lhs_17.php).scores.\",jsonIndex,\".h_sc\"));\n    }\n\n    function queryAwayScore() private {\n        oraclize_query(\"URL\",   strConcat(\"json(http://fplalerts.com/api/fpl_lhs_17.php).scores.\",jsonIndex,\".a_sc\"));\n    }\n\n    function claimWinnings() public {\n        Bet storage placedBet = bets[msg.sender];\n        require( placedBet.outcomeIndex == winningIndex);\n        placedBet.winnings = placedBet.amount+((((totalPools[3]-totalPools[winningIndex])*(placedBet.amount/totalPools[winningIndex]))*(100-1))/100);\n        require( placedBet.paid == false);\n        placedBet.paid = true;\n        bets[msg.sender] = placedBet;\n        msg.sender.transfer(placedBet.winnings);\n    }\n\n}\n",
  "sourcePath": "/home/ebin/Projects/EBeth/contracts/Betting.sol",
  "compiler": {
    "name": "solc",
    "version": "0.4.19+commit.c4cbbb05.Emscripten.clang"
  },
  "schemaVersion": "1.0.1",
  "updatedAt": "2018-03-11T16:02:25.654Z"
}