{
  "contractName": "Betting",
  "abi": [
    {
      "constant": true,
      "inputs": [],
      "name": "creator",
      "outputs": [
        {
          "name": "",
          "type": "address"
        }
      ],
      "payable": false,
      "stateMutability": "view",
      "type": "function"
    },
    {
      "constant": true,
      "inputs": [
        {
          "name": "",
          "type": "address"
        }
      ],
      "name": "bettingIndices",
      "outputs": [
        {
          "name": "",
          "type": "uint256"
        }
      ],
      "payable": false,
      "stateMutability": "view",
      "type": "function"
    },
    {
      "constant": true,
      "inputs": [
        {
          "name": "",
          "type": "uint256"
        }
      ],
      "name": "betEvents",
      "outputs": [
        {
          "name": "",
          "type": "address"
        }
      ],
      "payable": false,
      "stateMutability": "view",
      "type": "function"
    },
    {
      "constant": false,
      "inputs": [
        {
          "name": "_outcomeIndex",
          "type": "uint256"
        }
      ],
      "name": "placeBet",
      "outputs": [],
      "payable": true,
      "stateMutability": "payable",
      "type": "function"
    },
    {
      "constant": true,
      "inputs": [],
      "name": "length",
      "outputs": [
        {
          "name": "",
          "type": "uint256"
        }
      ],
      "payable": false,
      "stateMutability": "view",
      "type": "function"
    },
    {
      "constant": true,
      "inputs": [
        {
          "name": "",
          "type": "uint256"
        }
      ],
      "name": "bets",
      "outputs": [
        {
          "name": "addr",
          "type": "address"
        },
        {
          "name": "outcomeIndex",
          "type": "uint256"
        },
        {
          "name": "amount",
          "type": "uint256"
        },
        {
          "name": "winnings",
          "type": "uint256"
        },
        {
          "name": "paid",
          "type": "bool"
        }
      ],
      "payable": false,
      "stateMutability": "view",
      "type": "function"
    },
    {
      "constant": false,
      "inputs": [
        {
          "name": "myid",
          "type": "bytes32"
        },
        {
          "name": "result",
          "type": "string"
        }
      ],
      "name": "__callback",
      "outputs": [],
      "payable": false,
      "stateMutability": "nonpayable",
      "type": "function"
    },
    {
      "constant": true,
      "inputs": [],
      "name": "outcomeOne",
      "outputs": [
        {
          "name": "",
          "type": "string"
        }
      ],
      "payable": false,
      "stateMutability": "view",
      "type": "function"
    },
    {
      "constant": false,
      "inputs": [],
      "name": "eventStarted",
      "outputs": [],
      "payable": false,
      "stateMutability": "nonpayable",
      "type": "function"
    },
    {
      "constant": true,
      "inputs": [],
      "name": "fid",
      "outputs": [
        {
          "name": "",
          "type": "string"
        }
      ],
      "payable": false,
      "stateMutability": "view",
      "type": "function"
    },
    {
      "constant": true,
      "inputs": [
        {
          "name": "",
          "type": "uint256"
        }
      ],
      "name": "totalPools",
      "outputs": [
        {
          "name": "",
          "type": "uint256"
        }
      ],
      "payable": false,
      "stateMutability": "view",
      "type": "function"
    },
    {
      "constant": false,
      "inputs": [
        {
          "name": "myid",
          "type": "bytes32"
        },
        {
          "name": "result",
          "type": "string"
        },
        {
          "name": "proof",
          "type": "bytes"
        }
      ],
      "name": "__callback",
      "outputs": [],
      "payable": false,
      "stateMutability": "nonpayable",
      "type": "function"
    },
    {
      "constant": true,
      "inputs": [],
      "name": "teamTwoScore",
      "outputs": [
        {
          "name": "",
          "type": "uint256"
        }
      ],
      "payable": false,
      "stateMutability": "view",
      "type": "function"
    },
    {
      "constant": true,
      "inputs": [],
      "name": "outcomeTwo",
      "outputs": [
        {
          "name": "",
          "type": "string"
        }
      ],
      "payable": false,
      "stateMutability": "view",
      "type": "function"
    },
    {
      "constant": true,
      "inputs": [],
      "name": "kickOffTime",
      "outputs": [
        {
          "name": "",
          "type": "uint256"
        }
      ],
      "payable": false,
      "stateMutability": "view",
      "type": "function"
    },
    {
      "constant": true,
      "inputs": [],
      "name": "outcomeThree",
      "outputs": [
        {
          "name": "",
          "type": "string"
        }
      ],
      "payable": false,
      "stateMutability": "view",
      "type": "function"
    },
    {
      "constant": false,
      "inputs": [],
      "name": "eventOver",
      "outputs": [],
      "payable": true,
      "stateMutability": "payable",
      "type": "function"
    },
    {
      "constant": true,
      "inputs": [],
      "name": "jsonIndex",
      "outputs": [
        {
          "name": "",
          "type": "string"
        }
      ],
      "payable": false,
      "stateMutability": "view",
      "type": "function"
    },
    {
      "constant": true,
      "inputs": [],
      "name": "state",
      "outputs": [
        {
          "name": "",
          "type": "uint256"
        }
      ],
      "payable": false,
      "stateMutability": "view",
      "type": "function"
    },
    {
      "constant": true,
      "inputs": [],
      "name": "winningIndex",
      "outputs": [
        {
          "name": "",
          "type": "uint256"
        }
      ],
      "payable": false,
      "stateMutability": "view",
      "type": "function"
    },
    {
      "constant": true,
      "inputs": [],
      "name": "teamOneScore",
      "outputs": [
        {
          "name": "",
          "type": "uint256"
        }
      ],
      "payable": false,
      "stateMutability": "view",
      "type": "function"
    },
    {
      "constant": false,
      "inputs": [
        {
          "name": "_outcomeIndex",
          "type": "uint256"
        }
      ],
      "name": "changeBet",
      "outputs": [],
      "payable": false,
      "stateMutability": "nonpayable",
      "type": "function"
    },
    {
      "inputs": [
        {
          "name": "_outcomeOne",
          "type": "string"
        },
        {
          "name": "_outcomeTwo",
          "type": "string"
        },
        {
          "name": "_outcomeThree",
          "type": "string"
        },
        {
          "name": "_kickOffTime",
          "type": "uint256"
        },
        {
          "name": "_jsonIndex",
          "type": "string"
        },
        {
          "name": "_fid",
          "type": "string"
        },
        {
          "name": "managerAddress",
          "type": "address"
        }
      ],
      "payable": false,
      "stateMutability": "nonpayable",
      "type": "constructor"
    },
    {
      "constant": false,
      "inputs": [
        {
          "name": "eventAddr",
          "type": "address"
        }
      ],
      "name": "addEvent",
      "outputs": [],
      "payable": false,
      "stateMutability": "nonpayable",
      "type": "function"
    }
  ],
  "bytecode": "0x606060405234156200001057600080fd5b6040516200316d3803806200316d83398101604052808051820191906020018051820191906020018051820191906020018051906020019091908051820191906020018051820191906020018051906020019091905050600033600760006101000a81548173ffffffffffffffffffffffffffffffffffffffff021916908373ffffffffffffffffffffffffffffffffffffffff1602179055508760089080519060200190620000c292919062000240565b508660099080519060200190620000db92919062000240565b5085600a9080519060200190620000f492919062000240565b508460128190555083600b90805190602001906200011492919062000240565b5082600c90805190602001906200012d92919062000240565b5060046040518059106200013e5750595b90808252806020026020018201604052506013908051906020019062000166929190620002c7565b50600560108190555060016011819055506000600d819055508190508073ffffffffffffffffffffffffffffffffffffffff1663c7ae7451306040518263ffffffff167c0100000000000000000000000000000000000000000000000000000000028152600401808273ffffffffffffffffffffffffffffffffffffffff1673ffffffffffffffffffffffffffffffffffffffff168152602001915050600060405180830381600087803b15156200021d57600080fd5b6102c65a03f115156200022f57600080fd5b505050505050505050505062000341565b828054600181600116156101000203166002900490600052602060002090601f016020900481019282601f106200028357805160ff1916838001178555620002b4565b82800160010185558215620002b4579182015b82811115620002b357825182559160200191906001019062000296565b5b509050620002c3919062000319565b5090565b82805482825590600052602060002090810192821562000306579160200282015b8281111562000305578251825591602001919060010190620002e8565b5b50905062000315919062000319565b5090565b6200033e91905b808211156200033a57600081600090555060010162000320565b5090565b90565b612e1c80620003516000396000f300606060405260043610610133576000357c0100000000000000000000000000000000000000000000000000000000900463ffffffff16806302d05d3f146101385780630cfea6a91461018d578063107a2c5e146101da57806310fe7c481461023d5780631f7b6d321461025557806322af00fa1461027e57806327dc297e1461030157806329f7c1f91461036b57806330af5c56146103f95780633257b4f31461040e57806338367f241461049c57806338bbfa50146104d3578063444fd95b1461058057806362031c46146105a95780636be705f01461063757806376f9bbad14610660578063878443ac146106ee578063b0252ac5146106f8578063c19d93fb14610786578063c7ae7451146107af578063de75be4e146107e8578063e6d453dc14610811578063edd7bb751461083a575b600080fd5b341561014357600080fd5b61014b61085d565b604051808273ffffffffffffffffffffffffffffffffffffffff1673ffffffffffffffffffffffffffffffffffffffff16815260200191505060405180910390f35b341561019857600080fd5b6101c4600480803573ffffffffffffffffffffffffffffffffffffffff16906020019091905050610883565b6040518082815260200191505060405180910390f35b34156101e557600080fd5b6101fb600480803590602001909190505061089b565b604051808273ffffffffffffffffffffffffffffffffffffffff1673ffffffffffffffffffffffffffffffffffffffff16815260200191505060405180910390f35b61025360048080359060200190919050506108da565b005b341561026057600080fd5b610268610ab9565b6040518082815260200191505060405180910390f35b341561028957600080fd5b61029f6004808035906020019091905050610abf565b604051808673ffffffffffffffffffffffffffffffffffffffff1673ffffffffffffffffffffffffffffffffffffffff168152602001858152602001848152602001838152602001821515151581526020019550505050505060405180910390f35b341561030c57600080fd5b61036960048080356000191690602001909190803590602001908201803590602001908080601f01602080910402602001604051908101604052809392919081815260200183838082843782019150505050505091905050610b31565b005b341561037657600080fd5b61037e610b63565b6040518080602001828103825283818151815260200191508051906020019080838360005b838110156103be5780820151818401526020810190506103a3565b50505050905090810190601f1680156103eb5780820380516001836020036101000a031916815260200191505b509250505060405180910390f35b341561040457600080fd5b61040c610c01565b005b341561041957600080fd5b610421610c62565b6040518080602001828103825283818151815260200191508051906020019080838360005b83811015610461578082015181840152602081019050610446565b50505050905090810190601f16801561048e5780820380516001836020036101000a031916815260200191505b509250505060405180910390f35b34156104a757600080fd5b6104bd6004808035906020019091905050610d00565b6040518082815260200191505060405180910390f35b34156104de57600080fd5b61057e60048080356000191690602001909190803590602001908201803590602001908080601f0160208091040260200160405190810160405280939291908181526020018383808284378201915050505050509190803590602001908201803590602001908080601f01602080910402602001604051908101604052809392919081815260200183838082843782019150505050505091905050610d24565b005b341561058b57600080fd5b610593610df9565b6040518082815260200191505060405180910390f35b34156105b457600080fd5b6105bc610dff565b6040518080602001828103825283818151815260200191508051906020019080838360005b838110156105fc5780820151818401526020810190506105e1565b50505050905090810190601f1680156106295780820380516001836020036101000a031916815260200191505b509250505060405180910390f35b341561064257600080fd5b61064a610e9d565b6040518082815260200191505060405180910390f35b341561066b57600080fd5b610673610ea3565b6040518080602001828103825283818151815260200191508051906020019080838360005b838110156106b3578082015181840152602081019050610698565b50505050905090810190601f1680156106e05780820380516001836020036101000a031916815260200191505b509250505060405180910390f35b6106f6610f41565b005b341561070357600080fd5b61070b610faa565b6040518080602001828103825283818151815260200191508051906020019080838360005b8381101561074b578082015181840152602081019050610730565b50505050905090810190601f1680156107785780820380516001836020036101000a031916815260200191505b509250505060405180910390f35b341561079157600080fd5b610799611048565b6040518082815260200191505060405180910390f35b34156107ba57600080fd5b6107e6600480803573ffffffffffffffffffffffffffffffffffffffff1690602001909190505061104e565b005b34156107f357600080fd5b6107fb6110c6565b6040518082815260200191505060405180910390f35b341561081c57600080fd5b6108246110cc565b6040518082815260200191505060405180910390f35b341561084557600080fd5b61085b60048080359060200190919050506110d2565b005b600760009054906101000a900473ffffffffffffffffffffffffffffffffffffffff1681565b60146020528060005260406000206000915090505481565b6005818154811015156108aa57fe5b90600052602060002090016000915054906101000a900473ffffffffffffffffffffffffffffffffffffffff1681565b6000600d541415156108eb57600080fd5b6011600081548092919060010191905055601460003373ffffffffffffffffffffffffffffffffffffffff1673ffffffffffffffffffffffffffffffffffffffff1681526020019081526020016000208190555060a0604051908101604052803373ffffffffffffffffffffffffffffffffffffffff16815260200182815260200134815260200160008152602001600015158152506015601460003373ffffffffffffffffffffffffffffffffffffffff1673ffffffffffffffffffffffffffffffffffffffff168152602001908152602001600020548154811015156109cf57fe5b906000526020600020906005020160008201518160000160006101000a81548173ffffffffffffffffffffffffffffffffffffffff021916908373ffffffffffffffffffffffffffffffffffffffff16021790555060208201518160010155604082015181600201556060820151816003015560808201518160040160006101000a81548160ff02191690831515021790555090505034601382815481101515610a7557fe5b9060005260206000209001600082825401925050819055503460136003815481101515610a9e57fe5b90600052602060002090016000828254019250508190555050565b60065481565b601581815481101515610ace57fe5b90600052602060002090600502016000915090508060000160009054906101000a900473ffffffffffffffffffffffffffffffffffffffff16908060010154908060020154908060030154908060040160009054906101000a900460ff16905085565b610b5f82826000604051805910610b455750595b9080825280601f01601f1916602001820160405250610d24565b5050565b60088054600181600116156101000203166002900480601f016020809104026020016040519081016040528092919081815260200182805460018160011615610100020316600290048015610bf95780601f10610bce57610100808354040283529160200191610bf9565b820191906000526020600020905b815481529060010190602001808311610bdc57829003601f168201915b505050505081565b600760009054906101000a900473ffffffffffffffffffffffffffffffffffffffff1673ffffffffffffffffffffffffffffffffffffffff163373ffffffffffffffffffffffffffffffffffffffff161415610c60576001600d819055505b565b600c8054600181600116156101000203166002900480601f016020809104026020016040519081016040528092919081815260200182805460018160011615610100020316600290048015610cf85780601f10610ccd57610100808354040283529160200191610cf8565b820191906000526020600020905b815481529060010190602001808311610cdb57829003601f168201915b505050505081565b601381815481101515610d0f57fe5b90600052602060002090016000915090505481565b610d2c611309565b73ffffffffffffffffffffffffffffffffffffffff163373ffffffffffffffffffffffffffffffffffffffff16141515610d6557600080fd5b6002600d541415610d9457610d798261161f565b600e819055506003600d81905550610d8f611633565b610df4565b6003600d541415610df357610da88261161f565b600f81905550600f54600e541115610dc7576000601081905550610dea565b600f54600e541015610de0576002601081905550610de9565b60016010819055505b5b610df26117aa565b5b5b505050565b600f5481565b60098054600181600116156101000203166002900480601f016020809104026020016040519081016040528092919081815260200182805460018160011615610100020316600290048015610e955780601f10610e6a57610100808354040283529160200191610e95565b820191906000526020600020905b815481529060010190602001808311610e7857829003601f168201915b505050505081565b60125481565b600a8054600181600116156101000203166002900480601f016020809104026020016040519081016040528092919081815260200182805460018160011615610100020316600290048015610f395780601f10610f0e57610100808354040283529160200191610f39565b820191906000526020600020905b815481529060010190602001808311610f1c57829003601f168201915b505050505081565b600760009054906101000a900473ffffffffffffffffffffffffffffffffffffffff1673ffffffffffffffffffffffffffffffffffffffff163373ffffffffffffffffffffffffffffffffffffffff161415610fa8576002600d81905550610fa7611a09565b5b565b600b8054600181600116156101000203166002900480601f0160208091040260200160405190810160405280929190818152602001828054600181600116156101000203166002900480156110405780601f1061101557610100808354040283529160200191611040565b820191906000526020600020905b81548152906001019060200180831161102357829003601f168201915b505050505081565b600d5481565b600580548060010182816110629190612cf7565b9160005260206000209001600083909190916101000a81548173ffffffffffffffffffffffffffffffffffffffff021916908373ffffffffffffffffffffffffffffffffffffffff1602179055505060066000815480929190600101919050555050565b60105481565b600e5481565b600080600d5414801561112557506000601460003373ffffffffffffffffffffffffffffffffffffffff1673ffffffffffffffffffffffffffffffffffffffff1681526020019081526020016000205414155b151561113057600080fd5b6015601460003373ffffffffffffffffffffffffffffffffffffffff1673ffffffffffffffffffffffffffffffffffffffff1681526020019081526020016000205481548110151561117e57fe5b906000526020600020906005020190508060020154601382600101548154811015156111a657fe5b90600052602060002090016000828254039250508190555080600201546013838154811015156111d257fe5b906000526020600020900160008282540192505081905550818160010181905550806015601460003373ffffffffffffffffffffffffffffffffffffffff1673ffffffffffffffffffffffffffffffffffffffff1681526020019081526020016000205481548110151561124257fe5b90600052602060002090600502016000820160009054906101000a900473ffffffffffffffffffffffffffffffffffffffff168160000160006101000a81548173ffffffffffffffffffffffffffffffffffffffff021916908373ffffffffffffffffffffffffffffffffffffffff1602179055506001820154816001015560028201548160020155600382015481600301556004820160009054906101000a900460ff168160040160006101000a81548160ff0219169083151502179055509050505050565b6000806000809054906101000a900473ffffffffffffffffffffffffffffffffffffffff1673ffffffffffffffffffffffffffffffffffffffff161480611379575060006113776000809054906101000a900473ffffffffffffffffffffffffffffffffffffffff16611b80565b145b1561138a576113886000611b8b565b505b6000809054906101000a900473ffffffffffffffffffffffffffffffffffffffff1673ffffffffffffffffffffffffffffffffffffffff166338cc48316000604051602001526040518163ffffffff167c0100000000000000000000000000000000000000000000000000000000028152600401602060405180830381600087803b151561141757600080fd5b6102c65a03f1151561142857600080fd5b5050506040518051905073ffffffffffffffffffffffffffffffffffffffff16600160009054906101000a900473ffffffffffffffffffffffffffffffffffffffff1673ffffffffffffffffffffffffffffffffffffffff16141515611571576000809054906101000a900473ffffffffffffffffffffffffffffffffffffffff1673ffffffffffffffffffffffffffffffffffffffff166338cc48316000604051602001526040518163ffffffff167c0100000000000000000000000000000000000000000000000000000000028152600401602060405180830381600087803b151561151557600080fd5b6102c65a03f1151561152657600080fd5b50505060405180519050600160006101000a81548173ffffffffffffffffffffffffffffffffffffffff021916908373ffffffffffffffffffffffffffffffffffffffff1602179055505b600160009054906101000a900473ffffffffffffffffffffffffffffffffffffffff1673ffffffffffffffffffffffffffffffffffffffff1663c281d19e6000604051602001526040518163ffffffff167c0100000000000000000000000000000000000000000000000000000000028152600401602060405180830381600087803b15156115ff57600080fd5b6102c65a03f1151561161057600080fd5b50505060405180519050905090565b600061162c826000611b9c565b9050919050565b6117a76040805190810160405280600381526020017f55524c00000000000000000000000000000000000000000000000000000000008152506117a2606060405190810160405280603581526020017f6a736f6e28687474703a2f2f66706c616c657274732e636f6d2f6170692f667081526020017f6c5f6c68735f31372e706870292e73636f7265732e0000000000000000000000815250600b8054600181600116156101000203166002900480601f0160208091040260200160405190810160405280929190818152602001828054600181600116156101000203166002900480156117625780601f1061173757610100808354040283529160200191611762565b820191906000526020600020905b81548152906001019060200180831161174557829003601f168201915b50505050506040805190810160405280600581526020017f2e615f7363000000000000000000000000000000000000000000000000000000815250611e96565b611ed4565b50565b6000806003600d541415156117be57600080fd5b600191505b601154821015611a05576015828154811015156117dc57fe5b9060005260206000209060050201905060105481600101541480156118165750600015158160040160009054906101000a900460ff161515145b156119f8576064605f601360105481548110151561183057fe5b906000526020600020900154836002015481151561184a57fe5b04601360105481548110151561185c57fe5b9060005260206000209001546013600381548110151561187857fe5b90600052602060002090015403020281151561189057fe5b04816002015401816003018190555060018160040160006101000a81548160ff021916908315150217905550806015838154811015156118cc57fe5b90600052602060002090600502016000820160009054906101000a900473ffffffffffffffffffffffffffffffffffffffff168160000160006101000a81548173ffffffffffffffffffffffffffffffffffffffff021916908373ffffffffffffffffffffffffffffffffffffffff1602179055506001820154816001015560028201548160020155600382015481600301556004820160009054906101000a900460ff168160040160006101000a81548160ff0219169083151502179055509050508060000160009054906101000a900473ffffffffffffffffffffffffffffffffffffffff1673ffffffffffffffffffffffffffffffffffffffff166108fc82600301549081150290604051600060405180830381858888f1935050505015156119f757600080fd5b5b81806001019250506117c3565b5050565b611b7d6040805190810160405280600381526020017f55524c0000000000000000000000000000000000000000000000000000000000815250611b78606060405190810160405280603581526020017f6a736f6e28687474703a2f2f66706c616c657274732e636f6d2f6170692f667081526020017f6c5f6c68735f31372e706870292e73636f7265732e0000000000000000000000815250600b8054600181600116156101000203166002900480601f016020809104026020016040519081016040528092919081815260200182805460018160011615610100020316600290048015611b385780601f10611b0d57610100808354040283529160200191611b38565b820191906000526020600020905b815481529060010190602001808311611b1b57829003601f168201915b50505050506040805190810160405280600581526020017f2e685f7363000000000000000000000000000000000000000000000000000000815250611e96565b611ed4565b50565b6000813b9050919050565b6000611b95612416565b9050919050565b6000611ba6612d23565b60008060008693506000925060009150600090505b8351811015611e775760307f0100000000000000000000000000000000000000000000000000000000000000028482815181101515611bf657fe5b9060200101517f010000000000000000000000000000000000000000000000000000000000000090047f0100000000000000000000000000000000000000000000000000000000000000027effffffffffffffffffffffffffffffffffffffffffffffffffffffffffffff191610158015611d0e575060397f0100000000000000000000000000000000000000000000000000000000000000028482815181101515611c9e57fe5b9060200101517f010000000000000000000000000000000000000000000000000000000000000090047f0100000000000000000000000000000000000000000000000000000000000000027effffffffffffffffffffffffffffffffffffffffffffffffffffffffffffff191611155b15611dbf578115611d31576000861415611d2757611e77565b8580600190039650505b600a8302925060308482815181101515611d4757fe5b9060200101517f010000000000000000000000000000000000000000000000000000000000000090047f0100000000000000000000000000000000000000000000000000000000000000027f010000000000000000000000000000000000000000000000000000000000000090040383019250611e6a565b602e7f0100000000000000000000000000000000000000000000000000000000000000028482815181101515611df157fe5b9060200101517f010000000000000000000000000000000000000000000000000000000000000090047f0100000000000000000000000000000000000000000000000000000000000000027effffffffffffffffffffffffffffffffffffffffffffffffffffffffffffff19161415611e6957600191505b5b8080600101915050611bbb565b6000861115611e895785600a0a830292505b8294505050505092915050565b611e9e612d37565b611ecb848484602060405190810160405280600081525060206040519081016040528060008152506128a5565b90509392505050565b60008060008060009054906101000a900473ffffffffffffffffffffffffffffffffffffffff1673ffffffffffffffffffffffffffffffffffffffff161480611f4657506000611f446000809054906101000a900473ffffffffffffffffffffffffffffffffffffffff16611b80565b145b15611f5757611f556000611b8b565b505b6000809054906101000a900473ffffffffffffffffffffffffffffffffffffffff1673ffffffffffffffffffffffffffffffffffffffff166338cc48316000604051602001526040518163ffffffff167c0100000000000000000000000000000000000000000000000000000000028152600401602060405180830381600087803b1515611fe457600080fd5b6102c65a03f11515611ff557600080fd5b5050506040518051905073ffffffffffffffffffffffffffffffffffffffff16600160009054906101000a900473ffffffffffffffffffffffffffffffffffffffff1673ffffffffffffffffffffffffffffffffffffffff1614151561213e576000809054906101000a900473ffffffffffffffffffffffffffffffffffffffff1673ffffffffffffffffffffffffffffffffffffffff166338cc48316000604051602001526040518163ffffffff167c0100000000000000000000000000000000000000000000000000000000028152600401602060405180830381600087803b15156120e257600080fd5b6102c65a03f115156120f357600080fd5b50505060405180519050600160006101000a81548173ffffffffffffffffffffffffffffffffffffffff021916908373ffffffffffffffffffffffffffffffffffffffff1602179055505b600160009054906101000a900473ffffffffffffffffffffffffffffffffffffffff1673ffffffffffffffffffffffffffffffffffffffff1663524f3889856000604051602001526040518263ffffffff167c01000000000000000000000000000000000000000000000000000000000281526004018080602001828103825283818151815260200191508051906020019080838360005b838110156121f15780820151818401526020810190506121d6565b50505050905090810190601f16801561221e5780820380516001836020036101000a031916815260200191505b5092505050602060405180830381600087803b151561223c57600080fd5b6102c65a03f1151561224d57600080fd5b50505060405180519050905062030d403a02670de0b6b3a76400000181111561227c576000600102915061240f565b600160009054906101000a900473ffffffffffffffffffffffffffffffffffffffff1673ffffffffffffffffffffffffffffffffffffffff1663adf59f9982600087876000604051602001526040518563ffffffff167c0100000000000000000000000000000000000000000000000000000000028152600401808481526020018060200180602001838103835285818151815260200191508051906020019080838360005b8381101561233d578082015181840152602081019050612322565b50505050905090810190601f16801561236a5780820380516001836020036101000a031916815260200191505b50838103825284818151815260200191508051906020019080838360005b838110156123a3578082015181840152602081019050612388565b50505050905090810190601f1680156123d05780820380516001836020036101000a031916815260200191505b50955050505050506020604051808303818588803b15156123f057600080fd5b6125ee5a03f1151561240157600080fd5b505050506040518051905091505b5092915050565b600080612436731d3b2638a7cc9f2cb3d298a3da7a90b67e5506ed611b80565b11156124d757731d3b2638a7cc9f2cb3d298a3da7a90b67e5506ed6000806101000a81548173ffffffffffffffffffffffffffffffffffffffff021916908373ffffffffffffffffffffffffffffffffffffffff1602179055506124ce6040805190810160405280600b81526020017f6574685f6d61696e6e6574000000000000000000000000000000000000000000815250612cdd565b600190506128a2565b60006124f673c03a2615d5efaf5f49f60b7bb6583eaec212fdf1611b80565b11156125975773c03a2615d5efaf5f49f60b7bb6583eaec212fdf16000806101000a81548173ffffffffffffffffffffffffffffffffffffffff021916908373ffffffffffffffffffffffffffffffffffffffff16021790555061258e6040805190810160405280600c81526020017f6574685f726f707374656e330000000000000000000000000000000000000000815250612cdd565b600190506128a2565b60006125b673b7a07bcf2ba2f2703b24c0691b5278999c59ac7e611b80565b11156126575773b7a07bcf2ba2f2703b24c0691b5278999c59ac7e6000806101000a81548173ffffffffffffffffffffffffffffffffffffffff021916908373ffffffffffffffffffffffffffffffffffffffff16021790555061264e6040805190810160405280600981526020017f6574685f6b6f76616e0000000000000000000000000000000000000000000000815250612cdd565b600190506128a2565b600061267673146500cfd35b22e4a392fe0adc06de1a1368ed48611b80565b11156127175773146500cfd35b22e4a392fe0adc06de1a1368ed486000806101000a81548173ffffffffffffffffffffffffffffffffffffffff021916908373ffffffffffffffffffffffffffffffffffffffff16021790555061270e6040805190810160405280600b81526020017f6574685f72696e6b656279000000000000000000000000000000000000000000815250612cdd565b600190506128a2565b6000612736736f485c8bf6fc43ea212e93bbf8ce046c7f1cb475611b80565b111561279957736f485c8bf6fc43ea212e93bbf8ce046c7f1cb4756000806101000a81548173ffffffffffffffffffffffffffffffffffffffff021916908373ffffffffffffffffffffffffffffffffffffffff160217905550600190506128a2565b60006127b87320e12a1f859b3feae5fb2a0a32c18f5a65555bbf611b80565b111561281b577320e12a1f859b3feae5fb2a0a32c18f5a65555bbf6000806101000a81548173ffffffffffffffffffffffffffffffffffffffff021916908373ffffffffffffffffffffffffffffffffffffffff160217905550600190506128a2565b600061283a7351efaf4c8b3c9afbd5ab9f4bbc82784ab6ef8faa611b80565b111561289d577351efaf4c8b3c9afbd5ab9f4bbc82784ab6ef8faa6000806101000a81548173ffffffffffffffffffffffffffffffffffffffff021916908373ffffffffffffffffffffffffffffffffffffffff160217905550600190506128a2565b600090505b90565b6128ad612d37565b6128b5612d23565b6128bd612d23565b6128c5612d23565b6128cd612d23565b6128d5612d23565b6128dd612d37565b6128e5612d23565b6000808e98508d97508c96508b95508a94508451865188518a518c51010101016040518059106129125750595b9080825280601f01601f1916602001820160405250935083925060009150600090505b88518110156129e857888181518110151561294c57fe5b9060200101517f010000000000000000000000000000000000000000000000000000000000000090047f01000000000000000000000000000000000000000000000000000000000000000283838060010194508151811015156129ab57fe5b9060200101907effffffffffffffffffffffffffffffffffffffffffffffffffffffffffffff1916908160001a9053508080600101915050612935565b600090505b8751811015612aa0578781815181101515612a0457fe5b9060200101517f010000000000000000000000000000000000000000000000000000000000000090047f0100000000000000000000000000000000000000000000000000000000000000028383806001019450815181101515612a6357fe5b9060200101907effffffffffffffffffffffffffffffffffffffffffffffffffffffffffffff1916908160001a90535080806001019150506129ed565b600090505b8651811015612b58578681815181101515612abc57fe5b9060200101517f010000000000000000000000000000000000000000000000000000000000000090047f0100000000000000000000000000000000000000000000000000000000000000028383806001019450815181101515612b1b57fe5b9060200101907effffffffffffffffffffffffffffffffffffffffffffffffffffffffffffff1916908160001a9053508080600101915050612aa5565b600090505b8551811015612c10578581815181101515612b7457fe5b9060200101517f010000000000000000000000000000000000000000000000000000000000000090047f0100000000000000000000000000000000000000000000000000000000000000028383806001019450815181101515612bd357fe5b9060200101907effffffffffffffffffffffffffffffffffffffffffffffffffffffffffffff1916908160001a9053508080600101915050612b5d565b600090505b8451811015612cc8578481815181101515612c2c57fe5b9060200101517f010000000000000000000000000000000000000000000000000000000000000090047f0100000000000000000000000000000000000000000000000000000000000000028383806001019450815181101515612c8b57fe5b9060200101907effffffffffffffffffffffffffffffffffffffffffffffffffffffffffffff1916908160001a9053508080600101915050612c15565b82995050505050505050505095945050505050565b8060029080519060200190612cf3929190612d4b565b5050565b815481835581811511612d1e57818360005260206000209182019101612d1d9190612dcb565b5b505050565b602060405190810160405280600081525090565b602060405190810160405280600081525090565b828054600181600116156101000203166002900490600052602060002090601f016020900481019282601f10612d8c57805160ff1916838001178555612dba565b82800160010185558215612dba579182015b82811115612db9578251825591602001919060010190612d9e565b5b509050612dc79190612dcb565b5090565b612ded91905b80821115612de9576000816000905550600101612dd1565b5090565b905600a165627a7a7230582039a1f37cf5e94870f59c9caa28cadf60cee6835e323e0aa1b6c8416c79cd6fee0029",
  "source": "pragma solidity ^0.4.17;\n\nimport \"../installed_contracts/oraclize-api/contracts/usingOraclize.sol\";\n\ncontract BetManager {\n    address[] public betEvents;\n    uint public length;\n    function addEvent(address eventAddr) public {\n        betEvents.push(eventAddr);\n        length++;\n    }\n}\n\ncontract Betting is usingOraclize, BetManager {\n    \n    struct Bet {\n        address addr;\n        uint outcomeIndex;\n        uint256 amount;\n        uint256 winnings;\n        bool paid;\n    }\n\n    modifier onlyCreator() {\n        if (msg.sender == creator) \n        _;\n    }\n\n    address public creator;\n    \n    string public outcomeOne;\n    string public outcomeTwo;\n    string public outcomeThree;\n    string public jsonIndex;\n    string public fid;\n    \n    uint public state;\n    uint public teamOneScore;\n    uint public teamTwoScore;\n    uint public winningIndex;\n    uint private bettingIndex;\n\n    uint256 public kickOffTime;\n    uint256[] public totalPools;\n    \n    mapping(address => uint) public bettingIndices;\n\n    Bet[] public bets;\n    \n    function Betting(string _outcomeOne, string _outcomeTwo, string _outcomeThree, uint256 _kickOffTime, string _jsonIndex, string _fid, address managerAddress) public {\n        creator = msg.sender;\n        outcomeOne = _outcomeOne;\n        outcomeTwo = _outcomeTwo;\n        outcomeThree = _outcomeThree;\n        kickOffTime = _kickOffTime;\n        jsonIndex = _jsonIndex;\n        fid = _fid;\n        totalPools = new uint256[](4);\n        winningIndex = 5;\n        bettingIndex = 1;\n        state = 0;\n        BetManager betManager = BetManager(managerAddress);\n        betManager.addEvent(this);\n    }\n    \n    function placeBet(uint _outcomeIndex) public payable {\n        require(state == 0);\n        bettingIndices[msg.sender] = bettingIndex++;\n        bets[bettingIndices[msg.sender]] = Bet({addr: msg.sender, outcomeIndex: _outcomeIndex, amount: msg.value, paid: false, winnings: 0});\n        totalPools[_outcomeIndex] += msg.value;\n        totalPools[3] += msg.value;\n    }\n    \n    function changeBet(uint _outcomeIndex) public {\n        require(state == 0 && bettingIndices[msg.sender] != 0);\n        Bet storage previousBet = bets[bettingIndices[msg.sender]];  \n        totalPools[previousBet.outcomeIndex] -= previousBet.amount;\n        totalPools[_outcomeIndex] += previousBet.amount;\n        previousBet.outcomeIndex = _outcomeIndex;\n        bets[bettingIndices[msg.sender]] = previousBet;\n    }\n\n    function eventStarted() public onlyCreator {\n        state = 1;\n    }\n\n    function __callback(bytes32 myid, string result, bytes proof) public {\n        if (msg.sender != oraclize_cbAddress()) revert();\n        if(state == 2){\n            teamOneScore = parseInt(result);\n            state = 3;\n            queryAwayScore();\n        }else if(state == 3){\n            teamTwoScore = parseInt(result);\n            if(teamOneScore>teamTwoScore){\n                winningIndex = 0;\n            }\n            else if(teamOneScore<teamTwoScore){\n                winningIndex = 2;\n            }else{\n                winningIndex = 1;\n            }\n            sendWinnings();\n        }\n    }\n\n    function eventOver() public payable onlyCreator {\n        state = 2;\n        queryHomeScore();\n    }\n\n    function queryHomeScore() private {\n        oraclize_query(\"URL\",   strConcat(\"json(http://fplalerts.com/api/fpl_lhs_17.php).scores.\",jsonIndex,\".h_sc\"));\n    }\n\n    function queryAwayScore() private {\n        oraclize_query(\"URL\",   strConcat(\"json(http://fplalerts.com/api/fpl_lhs_17.php).scores.\",jsonIndex,\".a_sc\"));\n    }\n\n    function sendWinnings() private {\n        require(state == 3);\n        for(uint i = 1; i<bettingIndex;i++){\n            Bet storage placedBet = bets[i];\n            if((placedBet.outcomeIndex == winningIndex) && (placedBet.paid == false)){\n                placedBet.winnings = placedBet.amount+((((totalPools[3]-totalPools[winningIndex])*(placedBet.amount/totalPools[winningIndex]))*(100-5))/100);\n                placedBet.paid = true;\n                bets[i] = placedBet;\n                placedBet.addr.transfer(placedBet.winnings);\n            }\n        }\n    }\n\n}\n",
  "sourcePath": "/home/ebin/Projects/EBeth/contracts/Betting.sol",
  "compiler": {
    "name": "solc",
    "version": "0.4.19+commit.c4cbbb05.Emscripten.clang"
  },
  "schemaVersion": "1.0.1",
  "updatedAt": "2018-03-25T23:02:01.449Z"
}